{
	"address": "0xDe318f3F4292C0733f148eA47701529d2593511f",
	"abi": [
		{
			"inputs": [
				{
					"internalType": "address",
					"name": "_owner",
					"type": "address"
				},
				{
					"internalType": "address",
					"name": "_resolver",
					"type": "address"
				}
			],
			"payable": false,
			"stateMutability": "nonpayable",
			"type": "constructor"
		},
		{
			"anonymous": false,
			"inputs": [
				{
					"indexed": true,
					"internalType": "address",
					"name": "account",
					"type": "address"
				},
				{
					"indexed": false,
					"internalType": "bytes32",
					"name": "src",
					"type": "bytes32"
				},
				{
					"indexed": false,
					"internalType": "uint256",
					"name": "amount",
					"type": "uint256"
				},
				{
					"indexed": false,
					"internalType": "bytes32",
					"name": "dest",
					"type": "bytes32"
				},
				{
					"indexed": false,
					"internalType": "uint256",
					"name": "amountReceived",
					"type": "uint256"
				},
				{
					"indexed": false,
					"internalType": "uint256",
					"name": "exchangeFeeRate",
					"type": "uint256"
				},
				{
					"indexed": false,
					"internalType": "uint256",
					"name": "roundIdForSrc",
					"type": "uint256"
				},
				{
					"indexed": false,
					"internalType": "uint256",
					"name": "roundIdForDest",
					"type": "uint256"
				}
			],
			"name": "ExchangeEntryAppended",
			"type": "event"
		},
		{
			"anonymous": false,
			"inputs": [
				{
					"indexed": true,
					"internalType": "address",
					"name": "from",
					"type": "address"
				},
				{
					"indexed": false,
					"internalType": "bytes32",
					"name": "src",
					"type": "bytes32"
				},
				{
					"indexed": false,
					"internalType": "uint256",
					"name": "amount",
					"type": "uint256"
				},
				{
					"indexed": false,
					"internalType": "bytes32",
					"name": "dest",
					"type": "bytes32"
				},
				{
					"indexed": false,
					"internalType": "uint256",
					"name": "reclaim",
					"type": "uint256"
				},
				{
					"indexed": false,
					"internalType": "uint256",
					"name": "rebate",
					"type": "uint256"
				},
				{
					"indexed": false,
					"internalType": "uint256",
					"name": "srcRoundIdAtPeriodEnd",
					"type": "uint256"
				},
				{
					"indexed": false,
					"internalType": "uint256",
					"name": "destRoundIdAtPeriodEnd",
					"type": "uint256"
				},
				{
					"indexed": false,
					"internalType": "uint256",
					"name": "exchangeTimestamp",
					"type": "uint256"
				}
			],
			"name": "ExchangeEntrySettled",
			"type": "event"
		},
		{
			"anonymous": false,
			"inputs": [
				{
					"indexed": false,
					"internalType": "address",
					"name": "oldOwner",
					"type": "address"
				},
				{
					"indexed": false,
					"internalType": "address",
					"name": "newOwner",
					"type": "address"
				}
			],
			"name": "OwnerChanged",
			"type": "event"
		},
		{
			"anonymous": false,
			"inputs": [
				{
					"indexed": false,
					"internalType": "address",
					"name": "newOwner",
					"type": "address"
				}
			],
			"name": "OwnerNominated",
			"type": "event"
		},
		{
			"constant": true,
			"inputs": [],
			"name": "MAX_ADDRESSES_FROM_RESOLVER",
			"outputs": [
				{
					"internalType": "uint256",
					"name": "",
					"type": "uint256"
				}
			],
			"payable": false,
			"stateMutability": "view",
			"type": "function"
		},
		{
			"constant": false,
			"inputs": [],
			"name": "acceptOwnership",
			"outputs": [],
			"payable": false,
			"stateMutability": "nonpayable",
			"type": "function"
		},
		{
			"constant": true,
			"inputs": [
				{
					"internalType": "address",
					"name": "from",
					"type": "address"
				},
				{
					"internalType": "bytes32",
					"name": "currencyKey",
					"type": "bytes32"
				},
				{
					"internalType": "uint256",
					"name": "amount",
					"type": "uint256"
				},
				{
					"internalType": "uint256",
					"name": "refunded",
					"type": "uint256"
				}
			],
			"name": "calculateAmountAfterSettlement",
			"outputs": [
				{
					"internalType": "uint256",
					"name": "amountAfterSettlement",
					"type": "uint256"
				}
			],
			"payable": false,
			"stateMutability": "view",
			"type": "function"
		},
		{
			"constant": false,
			"inputs": [
				{
					"internalType": "address",
					"name": "from",
					"type": "address"
				},
				{
					"internalType": "bytes32",
					"name": "sourceCurrencyKey",
					"type": "bytes32"
				},
				{
					"internalType": "uint256",
					"name": "sourceAmount",
					"type": "uint256"
				},
				{
					"internalType": "bytes32",
					"name": "destinationCurrencyKey",
					"type": "bytes32"
				},
				{
					"internalType": "address",
					"name": "destinationAddress",
					"type": "address"
				}
			],
			"name": "exchange",
			"outputs": [
				{
					"internalType": "uint256",
					"name": "amountReceived",
					"type": "uint256"
				}
			],
			"payable": false,
			"stateMutability": "nonpayable",
			"type": "function"
		},
		{
			"constant": false,
			"inputs": [
				{
					"internalType": "address",
					"name": "exchangeForAddress",
					"type": "address"
				},
				{
					"internalType": "address",
					"name": "from",
					"type": "address"
				},
				{
					"internalType": "bytes32",
					"name": "sourceCurrencyKey",
					"type": "bytes32"
				},
				{
					"internalType": "uint256",
					"name": "sourceAmount",
					"type": "uint256"
				},
				{
					"internalType": "bytes32",
					"name": "destinationCurrencyKey",
					"type": "bytes32"
				}
			],
			"name": "exchangeOnBehalf",
			"outputs": [
				{
					"internalType": "uint256",
					"name": "amountReceived",
					"type": "uint256"
				}
			],
			"payable": false,
			"stateMutability": "nonpayable",
			"type": "function"
		},
		{
			"constant": true,
			"inputs": [
				{
					"internalType": "bytes32",
					"name": "sourceCurrencyKey",
					"type": "bytes32"
				},
				{
					"internalType": "bytes32",
					"name": "destinationCurrencyKey",
					"type": "bytes32"
				}
			],
			"name": "feeRateForExchange",
			"outputs": [
				{
					"internalType": "uint256",
					"name": "exchangeFeeRate",
					"type": "uint256"
				}
			],
			"payable": false,
			"stateMutability": "view",
			"type": "function"
		},
		{
			"constant": true,
			"inputs": [
				{
					"internalType": "uint256",
					"name": "sourceAmount",
					"type": "uint256"
				},
				{
					"internalType": "bytes32",
					"name": "sourceCurrencyKey",
					"type": "bytes32"
				},
				{
					"internalType": "bytes32",
					"name": "destinationCurrencyKey",
					"type": "bytes32"
				}
			],
			"name": "getAmountsForExchange",
			"outputs": [
				{
					"internalType": "uint256",
					"name": "amountReceived",
					"type": "uint256"
				},
				{
					"internalType": "uint256",
					"name": "fee",
					"type": "uint256"
				},
				{
					"internalType": "uint256",
					"name": "exchangeFeeRate",
					"type": "uint256"
				}
			],
			"payable": false,
			"stateMutability": "view",
			"type": "function"
		},
		{
			"constant": true,
			"inputs": [
				{
					"internalType": "bytes32",
					"name": "sourceCurrencyKey",
					"type": "bytes32"
				},
				{
					"internalType": "uint256",
					"name": "sourceAmount",
					"type": "uint256"
				},
				{
					"internalType": "bytes32",
					"name": "destinationCurrencyKey",
					"type": "bytes32"
				}
			],
			"name": "getPrice",
			"outputs": [
				{
					"internalType": "uint256",
					"name": "",
					"type": "uint256"
				}
			],
			"payable": false,
			"stateMutability": "view",
			"type": "function"
		},
		{
			"constant": true,
			"inputs": [],
			"name": "getResolverAddressesRequired",
			"outputs": [
				{
					"internalType": "bytes32[24]",
					"name": "addressesRequired",
					"type": "bytes32[24]"
				}
			],
			"payable": false,
			"stateMutability": "view",
			"type": "function"
		},
		{
			"constant": true,
			"inputs": [
				{
					"internalType": "address",
					"name": "account",
					"type": "address"
				},
				{
					"internalType": "bytes32",
					"name": "currencyKey",
					"type": "bytes32"
				}
			],
			"name": "hasWaitingPeriodOrSettlementOwing",
			"outputs": [
				{
					"internalType": "bool",
					"name": "",
					"type": "bool"
				}
			],
			"payable": false,
			"stateMutability": "view",
			"type": "function"
		},
		{
			"constant": true,
			"inputs": [
				{
					"internalType": "contract AddressResolver",
					"name": "_resolver",
					"type": "address"
				}
			],
			"name": "isResolverCached",
			"outputs": [
				{
					"internalType": "bool",
					"name": "",
					"type": "bool"
				}
			],
			"payable": false,
			"stateMutability": "view",
			"type": "function"
		},
		{
			"constant": true,
			"inputs": [
				{
					"internalType": "address",
					"name": "account",
					"type": "address"
				},
				{
					"internalType": "bytes32",
					"name": "currencyKey",
					"type": "bytes32"
				}
			],
			"name": "maxSecsLeftInWaitingPeriod",
			"outputs": [
				{
					"internalType": "uint256",
					"name": "",
					"type": "uint256"
				}
			],
			"payable": false,
			"stateMutability": "view",
			"type": "function"
		},
		{
			"constant": false,
			"inputs": [
				{
					"internalType": "address",
					"name": "_owner",
					"type": "address"
				}
			],
			"name": "nominateNewOwner",
			"outputs": [],
			"payable": false,
			"stateMutability": "nonpayable",
			"type": "function"
		},
		{
			"constant": true,
			"inputs": [],
			"name": "nominatedOwner",
			"outputs": [
				{
					"internalType": "address",
					"name": "",
					"type": "address"
				}
			],
			"payable": false,
			"stateMutability": "view",
			"type": "function"
		},
		{
			"constant": true,
			"inputs": [],
			"name": "owner",
			"outputs": [
				{
					"internalType": "address",
					"name": "",
					"type": "address"
				}
			],
			"payable": false,
			"stateMutability": "view",
			"type": "function"
		},
		{
			"constant": true,
			"inputs": [],
			"name": "resolver",
			"outputs": [
				{
					"internalType": "contract AddressResolver",
					"name": "",
					"type": "address"
				}
			],
			"payable": false,
			"stateMutability": "view",
			"type": "function"
		},
		{
			"constant": true,
			"inputs": [
				{
					"internalType": "uint256",
					"name": "",
					"type": "uint256"
				}
			],
			"name": "resolverAddressesRequired",
			"outputs": [
				{
					"internalType": "bytes32",
					"name": "",
					"type": "bytes32"
				}
			],
			"payable": false,
			"stateMutability": "view",
			"type": "function"
		},
		{
			"constant": false,
			"inputs": [
				{
					"internalType": "contract AddressResolver",
					"name": "_resolver",
					"type": "address"
				}
			],
			"name": "setResolverAndSyncCache",
			"outputs": [],
			"payable": false,
			"stateMutability": "nonpayable",
			"type": "function"
		},
		{
			"constant": false,
			"inputs": [
				{
					"internalType": "uint256",
					"name": "_waitingPeriodSecs",
					"type": "uint256"
				}
			],
			"name": "setWaitingPeriodSecs",
			"outputs": [],
			"payable": false,
			"stateMutability": "nonpayable",
			"type": "function"
		},
		{
			"constant": false,
			"inputs": [
				{
					"internalType": "address",
					"name": "from",
					"type": "address"
				},
				{
					"internalType": "bytes32",
					"name": "currencyKey",
					"type": "bytes32"
				}
			],
			"name": "settle",
			"outputs": [
				{
					"internalType": "uint256",
					"name": "reclaimed",
					"type": "uint256"
				},
				{
					"internalType": "uint256",
					"name": "refunded",
					"type": "uint256"
				},
				{
					"internalType": "uint256",
					"name": "numEntriesSettled",
					"type": "uint256"
				}
			],
			"payable": false,
			"stateMutability": "nonpayable",
			"type": "function"
		},
		{
			"constant": true,
			"inputs": [
				{
					"internalType": "address",
					"name": "account",
					"type": "address"
				},
				{
					"internalType": "bytes32",
					"name": "currencyKey",
					"type": "bytes32"
				}
			],
			"name": "settlementOwing",
			"outputs": [
				{
					"internalType": "uint256",
					"name": "reclaimAmount",
					"type": "uint256"
				},
				{
					"internalType": "uint256",
					"name": "rebateAmount",
					"type": "uint256"
				},
				{
					"internalType": "uint256",
					"name": "numEntries",
					"type": "uint256"
				}
			],
			"payable": false,
			"stateMutability": "view",
			"type": "function"
		},
		{
			"constant": true,
			"inputs": [],
			"name": "waitingPeriodSecs",
			"outputs": [
				{
					"internalType": "uint256",
					"name": "",
					"type": "uint256"
				}
			],
			"payable": false,
			"stateMutability": "view",
			"type": "function"
		}
	],
	"evm": {
		"bytecode": {
			"linkReferences": {
				"Exchanger.sol": {
					"SafeDecimalMath": [
						{
							"length": 20,
							"start": 10374
						}
					]
				}
			},
			"object": "6101606040526b53797374656d53746174757360a01b60809081526c45786368616e6765537461746560981b60a0526c45786368616e6765526174657360981b60c052644f696b6f7360d81b60e05266119959541bdbdb60ca1b610100527044656c6567617465417070726f76616c7360781b610120526524b9b9bab2b960d11b6101405262000094906006906007620002a3565b50348015620000a257600080fd5b5060405162002e6238038062002e6283398181016040526040811015620000c857600080fd5b50805160209091015160408051610300810191829052829160069060189082845b815481526020019060010190808311620000e957508793505050506001600160a01b03811662000160576040805162461bcd60e51b815260206004820152601960248201527f4f776e657220616464726573732063616e6e6f74206265203000000000000000604482015290519081900360640190fd5b600080546001600160a01b0319166001600160a01b038316908117825560408051928352602083019190915280517fb532073b38c83145e3e5135377a08bf9aab55bc0fd7c1179cd4fb995d2a5159c9281900390910190a1506000546001600160a01b03166200020b576040805162461bcd60e51b815260206004820152601160248201527013dddb995c881b5d5cdd081899481cd95d607a1b604482015290519081900360640190fd5b60005b6018811015620002735760008282601881106200022757fe5b602002015114620002645760048282601881106200024157fe5b60209081029190910151825460018101845560009384529190922001556200026a565b62000273565b6001016200020e565b5050600280546001600160a01b0319166001600160a01b0392909216919091179055505061016860055562000306565b8260188101928215620002d4579160200282015b82811115620002d4578251825591602001919060010190620002b7565b50620002e2929150620002e6565b5090565b6200030391905b80821115620002e25760008155600101620002ed565b90565b612b4c80620003166000396000f3fe608060405234801561001057600080fd5b50600436106101425760003560e01c8063635a3872116100b8578063ab49848c1161007c578063ab49848c146103c3578063c6c9d82814610404578063ce37d3e314610421578063d6f32e061461044a578063e3235c9114610476578063f450aa341461047e57610142565b8063635a38721461034c5780636a1c47581461036957806379ba5097146103ab57806389257117146103b35780638da5cb5b146103bb57610142565b80631a5c60951161010a5780631a5c60951461025d5780631b16802c146102805780633be99e6f146102ac5780634c268fc8146102d257806353a47bb71461030a578063631e14441461031257610142565b806304f3bcec14610147578063059c29ec1461016b5780630a1e187d146101a95780631627540c146101eb57806319d5c66514610213575b600080fd5b61014f6104a7565b604080516001600160a01b039092168252519081900360200190f35b6101976004803603604081101561018157600080fd5b506001600160a01b0381351690602001356104b6565b60408051918252519081900360200190f35b610197600480360360a08110156101bf57600080fd5b506001600160a01b0381358116916020810135916040820135916060810135916080909101351661055a565b6102116004803603602081101561020157600080fd5b50356001600160a01b0316610645565b005b61023f6004803603604081101561022957600080fd5b506001600160a01b0381351690602001356106e2565b60408051938452602084019290925282820152519081900360600190f35b6101976004803603604081101561027357600080fd5b5080359060200135610700565b61023f6004803603604081101561029657600080fd5b506001600160a01b03813516906020013561070c565b610211600480360360208110156102c257600080fd5b50356001600160a01b03166107e5565b610197600480360360808110156102e857600080fd5b506001600160a01b038135169060208101359060408101359060600135610953565b61014f610a73565b6103386004803603602081101561032857600080fd5b50356001600160a01b0316610a82565b604080519115158252519081900360200190f35b6102116004803603602081101561036257600080fd5b5035610b9f565b610197600480360360a081101561037f57600080fd5b506001600160a01b03813581169160208101359091169060408101359060608101359060800135610bed565b610211610da5565b610197610e61565b61014f610e67565b6103cb610e76565b604051808261030080838360005b838110156103f15781810151838201526020016103d9565b5050505090500191505060405180910390f35b6101976004803603602081101561041a57600080fd5b5035610ec0565b6101976004803603606081101561043757600080fd5b5080359060208101359060400135610ede565b6103386004803603604081101561046057600080fd5b506001600160a01b038135169060200135610f6f565b610197610fa0565b61023f6004803603606081101561049457600080fd5b5080359060208101359060400135610fa5565b6002546001600160a01b031681565b60006105516104c3610fc4565b6001600160a01b031663f1406dc885856040518363ffffffff1660e01b815260040180836001600160a01b03166001600160a01b031681526020018281526020019250505060206040518083038186803b15801561052057600080fd5b505afa158015610534573d6000803e3d6000fd5b505050506040513d602081101561054a57600080fd5b5051611084565b90505b92915050565b6000806105656110d8565b9050336001600160a01b03821614806105f25750604080516316b2213f60e01b815233600482015290516000916001600160a01b038416916316b2213f91602480820192602092909190829003018186803b1580156105c357600080fd5b505afa1580156105d7573d6000803e3d6000fd5b505050506040513d60208110156105ed57600080fd5b505114155b61062d5760405162461bcd60e51b8152600401808060200182810382526041815260200180612ab46041913960600191505060405180910390fd5b61063a8787878787611157565b979650505050505050565b6000546001600160a01b0316331461068e5760405162461bcd60e51b815260040180806020018281038252602f815260200180612a64602f913960400191505060405180910390fd5b600180546001600160a01b0383166001600160a01b0319909116811790915560408051918252517f906a1c6bd7e3091ea86693dd029a831c19049ce77f1dce2ce0bab1cacbabce229181900360200190a150565b60008060006106f18585611615565b50919790965090945092505050565b600061055183836118d1565b60008060008361071a6118d9565b6001600160a01b0316637118d4316040518163ffffffff1660e01b815260040160006040518083038186803b15801561075257600080fd5b505afa158015610766573d6000803e3d6000fd5b505050506107726118d9565b6001600160a01b03166342a28e21826040518263ffffffff1660e01b81526004018082815260200191505060006040518083038186803b1580156107b557600080fd5b505afa1580156107c9573d6000803e3d6000fd5b505050506107d78686611967565b935093509350509250925092565b6000546001600160a01b0316331461082e5760405162461bcd60e51b815260040180806020018281038252602f815260200180612a64602f913960400191505060405180910390fd5b600280546001600160a01b0319166001600160a01b03831617905560005b60045481101561094f5760006004828154811061086557fe5b600091825260209182902001546002546040805163dacb2d0160e01b81526004810184905260248101829052601760448201527f5265736f6c766572206d697373696e6720746172676574000000000000000000606482015290519294506001600160a01b039091169263dacb2d0192608480840193829003018186803b1580156108ef57600080fd5b505afa158015610903573d6000803e3d6000fd5b505050506040513d602081101561091957600080fd5b505160009182526003602052604090912080546001600160a01b0319166001600160a01b0390921691909117905560010161084c565b5050565b81600061095e611c0b565b6001600160a01b03166332608039866040518263ffffffff1660e01b81526004018082815260200191505060206040518083038186803b1580156109a157600080fd5b505afa1580156109b5573d6000803e3d6000fd5b505050506040513d60208110156109cb57600080fd5b5051604080516370a0823160e01b81526001600160a01b038981166004830152915191909216916370a08231916024808301926020929190829003018186803b158015610a1757600080fd5b505afa158015610a2b573d6000803e3d6000fd5b505050506040513d6020811015610a4157600080fd5b5051905080821115610a51578091505b8215610a6a57610a67828463ffffffff611c8c16565b91505b50949350505050565b6001546001600160a01b031681565b6002546000906001600160a01b03838116911614610aa257506000610b9a565b60005b600454811015610b9457600060048281548110610abe57fe5b6000918252602080832090910154808352600382526040928390205460025484516321f8a72160e01b81526004810184905294519295506001600160a01b03918216949116926321f8a72192602480840193829003018186803b158015610b2457600080fd5b505afa158015610b38573d6000803e3d6000fd5b505050506040513d6020811015610b4e57600080fd5b50516001600160a01b0316141580610b7b57506000818152600360205260409020546001600160a01b0316155b15610b8b57600092505050610b9a565b50600101610aa5565b50600190505b919050565b6000546001600160a01b03163314610be85760405162461bcd60e51b815260040180806020018281038252602f815260200180612a64602f913960400191505060405180910390fd5b600555565b600080610bf86110d8565b9050336001600160a01b0382161480610c855750604080516316b2213f60e01b815233600482015290516000916001600160a01b038416916316b2213f91602480820192602092909190829003018186803b158015610c5657600080fd5b505afa158015610c6a573d6000803e3d6000fd5b505050506040513d6020811015610c8057600080fd5b505114155b610cc05760405162461bcd60e51b8152600401808060200182810382526041815260200180612ab46041913960600191505060405180910390fd5b610cc8611ce6565b6040805163faf431bb60e01b81526001600160a01b038a8116600483015289811660248301529151929091169163faf431bb91604480820192602092909190829003018186803b158015610d1b57600080fd5b505afa158015610d2f573d6000803e3d6000fd5b505050506040513d6020811015610d4557600080fd5b5051610d98576040805162461bcd60e51b815260206004820152601d60248201527f4e6f7420617070726f76656420746f20616374206f6e20626568616c66000000604482015290519081900360640190fd5b61063a878686868b611157565b6001546001600160a01b03163314610dee5760405162461bcd60e51b8152600401808060200182810382526035815260200180612a0e6035913960400191505060405180910390fd5b600054600154604080516001600160a01b03938416815292909116602083015280517fb532073b38c83145e3e5135377a08bf9aab55bc0fd7c1179cd4fb995d2a5159c9281900390910190a160018054600080546001600160a01b03199081166001600160a01b03841617909155169055565b60055481565b6000546001600160a01b031681565b610e7e6129a3565b60005b600454811015610ebc5760048181548110610e9857fe5b9060005260206000200154828260188110610eaf57fe5b6020020152600101610e81565b5090565b60048181548110610ecd57fe5b600091825260209091200154905081565b6000610ee8611d61565b6001600160a01b031663654a60ac8585856040518463ffffffff1660e01b815260040180848152602001838152602001828152602001935050505060206040518083038186803b158015610f3b57600080fd5b505afa158015610f4f573d6000803e3d6000fd5b505050506040513d6020811015610f6557600080fd5b5051949350505050565b6000610f7b83836104b6565b15610f8857506001610554565b6000610f9484846106e2565b50501515949350505050565b601881565b6000806000610fb5868686611df0565b91989097509095509350505050565b6002546040805163dacb2d0160e01b81526c45786368616e6765537461746560981b600482015260248101829052601d60448201527f4d697373696e672045786368616e676553746174652061646472657373000000606482015290516000926001600160a01b03169163dacb2d01916084808301926020929190829003018186803b15801561105357600080fd5b505afa158015611067573d6000803e3d6000fd5b505050506040513d602081101561107d57600080fd5b5051905090565b60008115806110a657506005546110a290839063ffffffff611c8c16565b4210155b156110b357506000610b9a565b610554426110cc60055485611c8c90919063ffffffff16565b9063ffffffff611e3716565b6002546040805163dacb2d0160e01b8152644f696b6f7360d81b60048201526024810182905260156044820152744d697373696e67204f696b6f73206164647265737360581b606482015290516000926001600160a01b03169163dacb2d01916084808301926020929190829003018186803b15801561105357600080fd5b6000828514156111a4576040805162461bcd60e51b8152602060048201526013602482015272086c2dc4ee840c4ca40e6c2daca40e6f2dce8d606b1b604482015290519081900360640190fd5b600084116111e7576040805162461bcd60e51b815260206004820152600b60248201526a16995c9bc8185b5bdd5b9d60aa1b604482015290519081900360640190fd5b6040805160028082526060808301845292602083019080388339019050509050858160008151811061121557fe5b602002602001018181525050838160018151811061122f57fe5b602002602001018181525050611243611d61565b6001600160a01b0316632d227674826040518263ffffffff1660e01b81526004018080602001828103825283818151815260200191508051906020019060200280838360005b838110156112a1578181015183820152602001611289565b505050509050019250505060206040518083038186803b1580156112c457600080fd5b505afa1580156112d8573d6000803e3d6000fd5b505050506040513d60208110156112ee57600080fd5b505115611342576040805162461bcd60e51b815260206004820181905260248201527f5372632f646573742072617465207374616c65206f72206e6f7420666f756e64604482015290519081900360640190fd5b60008061134f8989611967565b9093509150879050811561137d576113698a8a8a86610953565b90508061137d57600094505050505061160c565b611385611c0b565b6001600160a01b031663326080398a6040518263ffffffff1660e01b81526004018082815260200191505060206040518083038186803b1580156113c857600080fd5b505afa1580156113dc573d6000803e3d6000fd5b505050506040513d60208110156113f257600080fd5b505160408051632770a7eb60e21b81526001600160a01b038d81166004830152602482018c905291519190921691639dc29fac91604480830192600092919082900301818387803b15801561144657600080fd5b505af115801561145a573d6000803e3d6000fd5b5050505060008061146c8a8c8b611df0565b9198509250905061147b611c0b565b6001600160a01b031663326080398a6040518263ffffffff1660e01b81526004018082815260200191505060206040518083038186803b1580156114be57600080fd5b505afa1580156114d2573d6000803e3d6000fd5b505050506040513d60208110156114e857600080fd5b50516040805163219e412d60e21b81526001600160a01b038b81166004830152602482018b90529151919092169163867904b491604480830192600092919082900301818387803b15801561153c57600080fd5b505af1158015611550573d6000803e3d6000fd5b50505050600082111561156757611567828a611e94565b61156f6110d8565b604080516306c00f3160e41b81526001600160a01b038f81166004830152602482018f9052604482018e9052606482018d9052608482018b90528b811660a483015291519290911691636c00f3109160c48082019260009290919082900301818387803b1580156115df57600080fd5b505af11580156115f3573d6000803e3d6000fd5b50505050611605888c8c8c8b866120ed565b5050505050505b95945050505050565b60008060006060611624610fc4565b6001600160a01b031663b44e975387876040518363ffffffff1660e01b815260040180836001600160a01b03166001600160a01b031681526020018281526020019250505060206040518083038186803b15801561168157600080fd5b505afa158015611695573d6000803e3d6000fd5b505050506040513d60208110156116ab57600080fd5b50516040805182815260208084028201019091529092506060908380156116ec57816020015b6116d96129c2565b8152602001906001900390816116d15790505b50905060005b838110156118c5576000806117056129c2565b6117108b8b866122fe565b905060008061171e83612419565b91509150600061172c611d61565b6001600160a01b031663266da16b85600001518660200151876040015187876040518663ffffffff1660e01b8152600401808681526020018581526020018481526020018381526020018281526020019550505050505060206040518083038186803b15801561179b57600080fd5b505afa1580156117af573d6000803e3d6000fd5b505050506040513d60208110156117c557600080fd5b505160808501519091506000906117dd908390612565565b90508085606001511115611819576060850151611800908263ffffffff611e3716565b96506118128d8863ffffffff611c8c16565b9c50611850565b846060015181111561185057606085015161183b90829063ffffffff611e3716565b955061184d8c8763ffffffff611c8c16565b9b505b6040518061010001604052808660000151815260200186602001518152602001866040015181526020018881526020018781526020018581526020018481526020018660a001518152508989815181106118a657fe5b60200260200101819052505050505050505080806001019150506116f2565b50905092959194509250565b506000919050565b6002546040805163dacb2d0160e01b81526b53797374656d53746174757360a01b600482015260248101829052601c60448201527f4d697373696e672053797374656d537461747573206164647265737300000000606482015290516000926001600160a01b03169163dacb2d01916084808301926020929190829003018186803b15801561105357600080fd5b600080600061197685856104b6565b156119b25760405162461bcd60e51b8152600401808060200182810382526023815260200180612af56023913960400191505060405180910390fd5b630de8aa8960e31b8414156119cf57506000915081905080611c04565b600080600060606119e08989611615565b935093509350935082841115611a1257611a00848463ffffffff611e3716565b9650611a0d8989896125f7565b611a37565b83831115611a3757611a2a838563ffffffff611e3716565b9550611a37898988612747565b60005b8151811015611b7c57896001600160a01b03167f8e3ad1f68bec55de3b6fa12ae2674a2a683a17c918a4cbf5157ac5d9ddc6e940838381518110611a7a57fe5b602002602001015160000151848481518110611a9257fe5b602002602001015160200151858581518110611aaa57fe5b602002602001015160400151868681518110611ac257fe5b602002602001015160600151878781518110611ada57fe5b602002602001015160800151888881518110611af257fe5b602002602001015160a00151898981518110611b0a57fe5b602002602001015160c001518a8a81518110611b2257fe5b602002602001015160e00151604051808981526020018881526020018781526020018681526020018581526020018481526020018381526020018281526020019850505050505050505060405180910390a2600101611a3a565b50819450611b88610fc4565b6001600160a01b031663d0d3d62a8a8a6040518363ffffffff1660e01b815260040180836001600160a01b03166001600160a01b0316815260200182815260200192505050600060405180830381600087803b158015611be757600080fd5b505af1158015611bfb573d6000803e3d6000fd5b50505050505050505b9250925092565b6002546040805163dacb2d0160e01b81526524b9b9bab2b960d11b60048201526024810182905260166044820152754d697373696e6720497373756572206164647265737360501b606482015290516000926001600160a01b03169163dacb2d01916084808301926020929190829003018186803b15801561105357600080fd5b600082820183811015610551576040805162461bcd60e51b815260206004820152601b60248201527f536166654d6174683a206164646974696f6e206f766572666c6f770000000000604482015290519081900360640190fd5b6002546040805163dacb2d0160e01b81527044656c6567617465417070726f76616c7360781b60048201908152602482019283526021604483018190526000946001600160a01b03169363dacb2d01939091606490910190612a43823960400191505060206040518083038186803b15801561105357600080fd5b6002546040805163dacb2d0160e01b81526c45786368616e6765526174657360981b600482015260248101829052601d60448201527f4d697373696e672045786368616e676552617465732061646472657373000000606482015290516000926001600160a01b03169163dacb2d01916084808301926020929190829003018186803b15801561105357600080fd5b600080600080611e01868887610ede565b9050611e0d86866118d1565b9150611e198183612565565b9350611e2b818563ffffffff611e3716565b92505093509350939050565b600082821115611e8e576040805162461bcd60e51b815260206004820152601e60248201527f536166654d6174683a207375627472616374696f6e206f766572666c6f770000604482015290519081900360640190fd5b50900390565b6000611e9e611d61565b6001600160a01b031663654a60ac8385631bd554d160e21b6040518463ffffffff1660e01b815260040180848152602001838152602001828152602001935050505060206040518083038186803b158015611ef857600080fd5b505afa158015611f0c573d6000803e3d6000fd5b505050506040513d6020811015611f2257600080fd5b50519050611f2e611c0b565b6001600160a01b03166332608039631bd554d160e21b6040518263ffffffff1660e01b81526004018082815260200191505060206040518083038186803b158015611f7857600080fd5b505afa158015611f8c573d6000803e3d6000fd5b505050506040513d6020811015611fa257600080fd5b50516001600160a01b031663867904b4611fba612897565b6001600160a01b031663eb1edd616040518163ffffffff1660e01b815260040160206040518083038186803b158015611ff257600080fd5b505afa158015612006573d6000803e3d6000fd5b505050506040513d602081101561201c57600080fd5b5051604080516001600160e01b031960e085901b1681526001600160a01b0390921660048301526024820185905251604480830192600092919082900301818387803b15801561206b57600080fd5b505af115801561207f573d6000803e3d6000fd5b5050505061208b612897565b6001600160a01b03166322bf55ef826040518263ffffffff1660e01b815260040180828152602001915050600060405180830381600087803b1580156120d057600080fd5b505af11580156120e4573d6000803e3d6000fd5b50505050505050565b60006120f7611d61565b90506000816001600160a01b0316637a018a1e886040518263ffffffff1660e01b81526004018082815260200191505060206040518083038186803b15801561213f57600080fd5b505afa158015612153573d6000803e3d6000fd5b505050506040513d602081101561216957600080fd5b505160408051633d00c50f60e11b81526004810188905290519192506000916001600160a01b03851691637a018a1e916024808301926020929190829003018186803b1580156121b857600080fd5b505afa1580156121cc573d6000803e3d6000fd5b505050506040513d60208110156121e257600080fd5b505190506121ee610fc4565b60408051630f2a761760e21b81526001600160a01b038c81166004830152602482018c9052604482018b9052606482018a90526084820189905260a482018890524260c483015260e48201869052610104820185905291519290911691633ca9d85c916101248082019260009290919082900301818387803b15801561227357600080fd5b505af1158015612287573d6000803e3d6000fd5b5050604080518b8152602081018b90528082018a9052606081018990526080810188905260a0810186905260c0810185905290516001600160a01b038d1693507f62e40d554c7abcdd31074960d8347a2225daeb04d93bc748f049ba2ce946239892509081900360e00190a2505050505050505050565b6123066129c2565b60008060008060008060008061231a610fc4565b6001600160a01b03166315987eb68d8d8d6040518463ffffffff1660e01b815260040180846001600160a01b03166001600160a01b0316815260200183815260200182815260200193505050506101006040518083038186803b15801561238057600080fd5b505afa158015612394573d6000803e3d6000fd5b505050506040513d6101008110156123ab57600080fd5b50805160208083015160408085015160608087015160808089015160a0808b015160c0808d015160e09d8e01518a5161010081018c529d8e529b8d019a909a52978b019690965293890192909252870152850152830152918101919091529c9b505050505050505050505050565b6000806000612426611d61565b600554855160c087015160a08801516040805163084f235160e11b8152600481019490945260248401929092526044830152606482018390525192935090916001600160a01b0384169163109e46a2916084808301926020929190829003018186803b15801561249557600080fd5b505afa1580156124a9573d6000803e3d6000fd5b505050506040513d60208110156124bf57600080fd5b505160408087015160e088015160a0890151835163084f235160e11b81526004810193909352602483019190915260448201526064810184905290519195506001600160a01b0384169163109e46a291608480820192602092909190829003018186803b15801561252f57600080fd5b505afa158015612543573d6000803e3d6000fd5b505050506040513d602081101561255957600080fd5b50519395939450505050565b60006105516125ea8373__$cc56be524fc9a50cd50be137f56c651270$__63907af6c06040518163ffffffff1660e01b815260040160206040518083038186803b1580156125b257600080fd5b505af41580156125c6573d6000803e3d6000fd5b505050506040513d60208110156125dc57600080fd5b50519063ffffffff611e3716565b849063ffffffff61292016565b6125ff611c0b565b6001600160a01b03166332608039836040518263ffffffff1660e01b81526004018082815260200191505060206040518083038186803b15801561264257600080fd5b505afa158015612656573d6000803e3d6000fd5b505050506040513d602081101561266c57600080fd5b505160408051632770a7eb60e21b81526001600160a01b0386811660048301526024820185905291519190921691639dc29fac91604480830192600092919082900301818387803b1580156126c057600080fd5b505af11580156126d4573d6000803e3d6000fd5b505050506126e06110d8565b6001600160a01b031663ace88afd8484846040518463ffffffff1660e01b815260040180846001600160a01b03166001600160a01b031681526020018381526020018281526020019350505050600060405180830381600087803b1580156120d057600080fd5b61274f611c0b565b6001600160a01b03166332608039836040518263ffffffff1660e01b81526004018082815260200191505060206040518083038186803b15801561279257600080fd5b505afa1580156127a6573d6000803e3d6000fd5b505050506040513d60208110156127bc57600080fd5b50516040805163219e412d60e21b81526001600160a01b038681166004830152602482018590529151919092169163867904b491604480830192600092919082900301818387803b15801561281057600080fd5b505af1158015612824573d6000803e3d6000fd5b505050506128306110d8565b6001600160a01b0316636f01a9868484846040518463ffffffff1660e01b815260040180846001600160a01b03166001600160a01b031681526020018381526020018281526020019350505050600060405180830381600087803b1580156120d057600080fd5b6002546040805163dacb2d0160e01b815266119959541bdbdb60ca1b600482015260248101829052601760448201527f4d697373696e6720466565506f6f6c2061646472657373000000000000000000606482015290516000926001600160a01b03169163dacb2d01916084808301926020929190829003018186803b15801561105357600080fd5b6000670de0b6b3a764000061293b848463ffffffff61294a16565b8161294257fe5b049392505050565b60008261295957506000610554565b8282028284828161296657fe5b04146105515760405162461bcd60e51b8152600401808060200182810382526021815260200180612a936021913960400191505060405180910390fd5b6040518061030001604052806018906020820280388339509192915050565b6040518061010001604052806000801916815260200160008152602001600080191681526020016000815260200160008152602001600081526020016000815260200160008152509056fe596f75206d757374206265206e6f6d696e61746564206265666f726520796f752063616e20616363657074206f776e6572736869704d697373696e672044656c6567617465417070726f76616c7320616464726573734f6e6c792074686520636f6e7472616374206f776e6572206d617920706572666f726d207468697320616374696f6e536166654d6174683a206d756c7469706c69636174696f6e206f766572666c6f7745786368616e6765723a204f6e6c79206f696b6f73206f7220612073796e746820636f6e74726163742063616e20706572666f726d207468697320616374696f6e43616e6e6f7420736574746c6520647572696e672077616974696e6720706572696f64a265627a7a7231582000249615f710700310117a6d0119bffc6677df25dcf9aa42b337fd51879a462b64736f6c63430005100032",
			"opcodes": "PUSH2 0x160 PUSH1 0x40 MSTORE PUSH12 0x53797374656D537461747573 PUSH1 0xA0 SHL PUSH1 0x80 SWAP1 DUP2 MSTORE PUSH13 0x45786368616E67655374617465 PUSH1 0x98 SHL PUSH1 0xA0 MSTORE PUSH13 0x45786368616E67655261746573 PUSH1 0x98 SHL PUSH1 0xC0 MSTORE PUSH5 0x4F696B6F73 PUSH1 0xD8 SHL PUSH1 0xE0 MSTORE PUSH7 0x119959541BDBDB PUSH1 0xCA SHL PUSH2 0x100 MSTORE PUSH17 0x44656C6567617465417070726F76616C73 PUSH1 0x78 SHL PUSH2 0x120 MSTORE PUSH6 0x24B9B9BAB2B9 PUSH1 0xD1 SHL PUSH2 0x140 MSTORE PUSH3 0x94 SWAP1 PUSH1 0x6 SWAP1 PUSH1 0x7 PUSH3 0x2A3 JUMP JUMPDEST POP CALLVALUE DUP1 ISZERO PUSH3 0xA2 JUMPI PUSH1 0x0 DUP1 REVERT JUMPDEST POP PUSH1 0x40 MLOAD PUSH3 0x2E62 CODESIZE SUB DUP1 PUSH3 0x2E62 DUP4 CODECOPY DUP2 DUP2 ADD PUSH1 0x40 MSTORE PUSH1 0x40 DUP2 LT ISZERO PUSH3 0xC8 JUMPI PUSH1 0x0 DUP1 REVERT JUMPDEST POP DUP1 MLOAD PUSH1 0x20 SWAP1 SWAP2 ADD MLOAD PUSH1 0x40 DUP1 MLOAD PUSH2 0x300 DUP2 ADD SWAP2 DUP3 SWAP1 MSTORE DUP3 SWAP2 PUSH1 0x6 SWAP1 PUSH1 0x18 SWAP1 DUP3 DUP5 JUMPDEST DUP2 SLOAD DUP2 MSTORE PUSH1 0x20 ADD SWAP1 PUSH1 0x1 ADD SWAP1 DUP1 DUP4 GT PUSH3 0xE9 JUMPI POP DUP8 SWAP4 POP POP POP POP PUSH1 0x1 PUSH1 0x1 PUSH1 0xA0 SHL SUB DUP2 AND PUSH3 0x160 JUMPI PUSH1 0x40 DUP1 MLOAD PUSH3 0x461BCD PUSH1 0xE5 SHL DUP2 MSTORE PUSH1 0x20 PUSH1 0x4 DUP3 ADD MSTORE PUSH1 0x19 PUSH1 0x24 DUP3 ADD MSTORE PUSH32 0x4F776E657220616464726573732063616E6E6F74206265203000000000000000 PUSH1 0x44 DUP3 ADD MSTORE SWAP1 MLOAD SWAP1 DUP2 SWAP1 SUB PUSH1 0x64 ADD SWAP1 REVERT JUMPDEST PUSH1 0x0 DUP1 SLOAD PUSH1 0x1 PUSH1 0x1 PUSH1 0xA0 SHL SUB NOT AND PUSH1 0x1 PUSH1 0x1 PUSH1 0xA0 SHL SUB DUP4 AND SWAP1 DUP2 OR DUP3 SSTORE PUSH1 0x40 DUP1 MLOAD SWAP3 DUP4 MSTORE PUSH1 0x20 DUP4 ADD SWAP2 SWAP1 SWAP2 MSTORE DUP1 MLOAD PUSH32 0xB532073B38C83145E3E5135377A08BF9AAB55BC0FD7C1179CD4FB995D2A5159C SWAP3 DUP2 SWAP1 SUB SWAP1 SWAP2 ADD SWAP1 LOG1 POP PUSH1 0x0 SLOAD PUSH1 0x1 PUSH1 0x1 PUSH1 0xA0 SHL SUB AND PUSH3 0x20B JUMPI PUSH1 0x40 DUP1 MLOAD PUSH3 0x461BCD PUSH1 0xE5 SHL DUP2 MSTORE PUSH1 0x20 PUSH1 0x4 DUP3 ADD MSTORE PUSH1 0x11 PUSH1 0x24 DUP3 ADD MSTORE PUSH17 0x13DDDB995C881B5D5CDD081899481CD95D PUSH1 0x7A SHL PUSH1 0x44 DUP3 ADD MSTORE SWAP1 MLOAD SWAP1 DUP2 SWAP1 SUB PUSH1 0x64 ADD SWAP1 REVERT JUMPDEST PUSH1 0x0 JUMPDEST PUSH1 0x18 DUP2 LT ISZERO PUSH3 0x273 JUMPI PUSH1 0x0 DUP3 DUP3 PUSH1 0x18 DUP2 LT PUSH3 0x227 JUMPI INVALID JUMPDEST PUSH1 0x20 MUL ADD MLOAD EQ PUSH3 0x264 JUMPI PUSH1 0x4 DUP3 DUP3 PUSH1 0x18 DUP2 LT PUSH3 0x241 JUMPI INVALID JUMPDEST PUSH1 0x20 SWAP1 DUP2 MUL SWAP2 SWAP1 SWAP2 ADD MLOAD DUP3 SLOAD PUSH1 0x1 DUP2 ADD DUP5 SSTORE PUSH1 0x0 SWAP4 DUP5 MSTORE SWAP2 SWAP1 SWAP3 KECCAK256 ADD SSTORE PUSH3 0x26A JUMP JUMPDEST PUSH3 0x273 JUMP JUMPDEST PUSH1 0x1 ADD PUSH3 0x20E JUMP JUMPDEST POP POP PUSH1 0x2 DUP1 SLOAD PUSH1 0x1 PUSH1 0x1 PUSH1 0xA0 SHL SUB NOT AND PUSH1 0x1 PUSH1 0x1 PUSH1 0xA0 SHL SUB SWAP3 SWAP1 SWAP3 AND SWAP2 SWAP1 SWAP2 OR SWAP1 SSTORE POP POP PUSH2 0x168 PUSH1 0x5 SSTORE PUSH3 0x306 JUMP JUMPDEST DUP3 PUSH1 0x18 DUP2 ADD SWAP3 DUP3 ISZERO PUSH3 0x2D4 JUMPI SWAP2 PUSH1 0x20 MUL DUP3 ADD JUMPDEST DUP3 DUP2 GT ISZERO PUSH3 0x2D4 JUMPI DUP3 MLOAD DUP3 SSTORE SWAP2 PUSH1 0x20 ADD SWAP2 SWAP1 PUSH1 0x1 ADD SWAP1 PUSH3 0x2B7 JUMP JUMPDEST POP PUSH3 0x2E2 SWAP3 SWAP2 POP PUSH3 0x2E6 JUMP JUMPDEST POP SWAP1 JUMP JUMPDEST PUSH3 0x303 SWAP2 SWAP1 JUMPDEST DUP1 DUP3 GT ISZERO PUSH3 0x2E2 JUMPI PUSH1 0x0 DUP2 SSTORE PUSH1 0x1 ADD PUSH3 0x2ED JUMP JUMPDEST SWAP1 JUMP JUMPDEST PUSH2 0x2B4C DUP1 PUSH3 0x316 PUSH1 0x0 CODECOPY PUSH1 0x0 RETURN INVALID PUSH1 0x80 PUSH1 0x40 MSTORE CALLVALUE DUP1 ISZERO PUSH2 0x10 JUMPI PUSH1 0x0 DUP1 REVERT JUMPDEST POP PUSH1 0x4 CALLDATASIZE LT PUSH2 0x142 JUMPI PUSH1 0x0 CALLDATALOAD PUSH1 0xE0 SHR DUP1 PUSH4 0x635A3872 GT PUSH2 0xB8 JUMPI DUP1 PUSH4 0xAB49848C GT PUSH2 0x7C JUMPI DUP1 PUSH4 0xAB49848C EQ PUSH2 0x3C3 JUMPI DUP1 PUSH4 0xC6C9D828 EQ PUSH2 0x404 JUMPI DUP1 PUSH4 0xCE37D3E3 EQ PUSH2 0x421 JUMPI DUP1 PUSH4 0xD6F32E06 EQ PUSH2 0x44A JUMPI DUP1 PUSH4 0xE3235C91 EQ PUSH2 0x476 JUMPI DUP1 PUSH4 0xF450AA34 EQ PUSH2 0x47E JUMPI PUSH2 0x142 JUMP JUMPDEST DUP1 PUSH4 0x635A3872 EQ PUSH2 0x34C JUMPI DUP1 PUSH4 0x6A1C4758 EQ PUSH2 0x369 JUMPI DUP1 PUSH4 0x79BA5097 EQ PUSH2 0x3AB JUMPI DUP1 PUSH4 0x89257117 EQ PUSH2 0x3B3 JUMPI DUP1 PUSH4 0x8DA5CB5B EQ PUSH2 0x3BB JUMPI PUSH2 0x142 JUMP JUMPDEST DUP1 PUSH4 0x1A5C6095 GT PUSH2 0x10A JUMPI DUP1 PUSH4 0x1A5C6095 EQ PUSH2 0x25D JUMPI DUP1 PUSH4 0x1B16802C EQ PUSH2 0x280 JUMPI DUP1 PUSH4 0x3BE99E6F EQ PUSH2 0x2AC JUMPI DUP1 PUSH4 0x4C268FC8 EQ PUSH2 0x2D2 JUMPI DUP1 PUSH4 0x53A47BB7 EQ PUSH2 0x30A JUMPI DUP1 PUSH4 0x631E1444 EQ PUSH2 0x312 JUMPI PUSH2 0x142 JUMP JUMPDEST DUP1 PUSH4 0x4F3BCEC EQ PUSH2 0x147 JUMPI DUP1 PUSH4 0x59C29EC EQ PUSH2 0x16B JUMPI DUP1 PUSH4 0xA1E187D EQ PUSH2 0x1A9 JUMPI DUP1 PUSH4 0x1627540C EQ PUSH2 0x1EB JUMPI DUP1 PUSH4 0x19D5C665 EQ PUSH2 0x213 JUMPI JUMPDEST PUSH1 0x0 DUP1 REVERT JUMPDEST PUSH2 0x14F PUSH2 0x4A7 JUMP JUMPDEST PUSH1 0x40 DUP1 MLOAD PUSH1 0x1 PUSH1 0x1 PUSH1 0xA0 SHL SUB SWAP1 SWAP3 AND DUP3 MSTORE MLOAD SWAP1 DUP2 SWAP1 SUB PUSH1 0x20 ADD SWAP1 RETURN JUMPDEST PUSH2 0x197 PUSH1 0x4 DUP1 CALLDATASIZE SUB PUSH1 0x40 DUP2 LT ISZERO PUSH2 0x181 JUMPI PUSH1 0x0 DUP1 REVERT JUMPDEST POP PUSH1 0x1 PUSH1 0x1 PUSH1 0xA0 SHL SUB DUP2 CALLDATALOAD AND SWAP1 PUSH1 0x20 ADD CALLDATALOAD PUSH2 0x4B6 JUMP JUMPDEST PUSH1 0x40 DUP1 MLOAD SWAP2 DUP3 MSTORE MLOAD SWAP1 DUP2 SWAP1 SUB PUSH1 0x20 ADD SWAP1 RETURN JUMPDEST PUSH2 0x197 PUSH1 0x4 DUP1 CALLDATASIZE SUB PUSH1 0xA0 DUP2 LT ISZERO PUSH2 0x1BF JUMPI PUSH1 0x0 DUP1 REVERT JUMPDEST POP PUSH1 0x1 PUSH1 0x1 PUSH1 0xA0 SHL SUB DUP2 CALLDATALOAD DUP2 AND SWAP2 PUSH1 0x20 DUP2 ADD CALLDATALOAD SWAP2 PUSH1 0x40 DUP3 ADD CALLDATALOAD SWAP2 PUSH1 0x60 DUP2 ADD CALLDATALOAD SWAP2 PUSH1 0x80 SWAP1 SWAP2 ADD CALLDATALOAD AND PUSH2 0x55A JUMP JUMPDEST PUSH2 0x211 PUSH1 0x4 DUP1 CALLDATASIZE SUB PUSH1 0x20 DUP2 LT ISZERO PUSH2 0x201 JUMPI PUSH1 0x0 DUP1 REVERT JUMPDEST POP CALLDATALOAD PUSH1 0x1 PUSH1 0x1 PUSH1 0xA0 SHL SUB AND PUSH2 0x645 JUMP JUMPDEST STOP JUMPDEST PUSH2 0x23F PUSH1 0x4 DUP1 CALLDATASIZE SUB PUSH1 0x40 DUP2 LT ISZERO PUSH2 0x229 JUMPI PUSH1 0x0 DUP1 REVERT JUMPDEST POP PUSH1 0x1 PUSH1 0x1 PUSH1 0xA0 SHL SUB DUP2 CALLDATALOAD AND SWAP1 PUSH1 0x20 ADD CALLDATALOAD PUSH2 0x6E2 JUMP JUMPDEST PUSH1 0x40 DUP1 MLOAD SWAP4 DUP5 MSTORE PUSH1 0x20 DUP5 ADD SWAP3 SWAP1 SWAP3 MSTORE DUP3 DUP3 ADD MSTORE MLOAD SWAP1 DUP2 SWAP1 SUB PUSH1 0x60 ADD SWAP1 RETURN JUMPDEST PUSH2 0x197 PUSH1 0x4 DUP1 CALLDATASIZE SUB PUSH1 0x40 DUP2 LT ISZERO PUSH2 0x273 JUMPI PUSH1 0x0 DUP1 REVERT JUMPDEST POP DUP1 CALLDATALOAD SWAP1 PUSH1 0x20 ADD CALLDATALOAD PUSH2 0x700 JUMP JUMPDEST PUSH2 0x23F PUSH1 0x4 DUP1 CALLDATASIZE SUB PUSH1 0x40 DUP2 LT ISZERO PUSH2 0x296 JUMPI PUSH1 0x0 DUP1 REVERT JUMPDEST POP PUSH1 0x1 PUSH1 0x1 PUSH1 0xA0 SHL SUB DUP2 CALLDATALOAD AND SWAP1 PUSH1 0x20 ADD CALLDATALOAD PUSH2 0x70C JUMP JUMPDEST PUSH2 0x211 PUSH1 0x4 DUP1 CALLDATASIZE SUB PUSH1 0x20 DUP2 LT ISZERO PUSH2 0x2C2 JUMPI PUSH1 0x0 DUP1 REVERT JUMPDEST POP CALLDATALOAD PUSH1 0x1 PUSH1 0x1 PUSH1 0xA0 SHL SUB AND PUSH2 0x7E5 JUMP JUMPDEST PUSH2 0x197 PUSH1 0x4 DUP1 CALLDATASIZE SUB PUSH1 0x80 DUP2 LT ISZERO PUSH2 0x2E8 JUMPI PUSH1 0x0 DUP1 REVERT JUMPDEST POP PUSH1 0x1 PUSH1 0x1 PUSH1 0xA0 SHL SUB DUP2 CALLDATALOAD AND SWAP1 PUSH1 0x20 DUP2 ADD CALLDATALOAD SWAP1 PUSH1 0x40 DUP2 ADD CALLDATALOAD SWAP1 PUSH1 0x60 ADD CALLDATALOAD PUSH2 0x953 JUMP JUMPDEST PUSH2 0x14F PUSH2 0xA73 JUMP JUMPDEST PUSH2 0x338 PUSH1 0x4 DUP1 CALLDATASIZE SUB PUSH1 0x20 DUP2 LT ISZERO PUSH2 0x328 JUMPI PUSH1 0x0 DUP1 REVERT JUMPDEST POP CALLDATALOAD PUSH1 0x1 PUSH1 0x1 PUSH1 0xA0 SHL SUB AND PUSH2 0xA82 JUMP JUMPDEST PUSH1 0x40 DUP1 MLOAD SWAP2 ISZERO ISZERO DUP3 MSTORE MLOAD SWAP1 DUP2 SWAP1 SUB PUSH1 0x20 ADD SWAP1 RETURN JUMPDEST PUSH2 0x211 PUSH1 0x4 DUP1 CALLDATASIZE SUB PUSH1 0x20 DUP2 LT ISZERO PUSH2 0x362 JUMPI PUSH1 0x0 DUP1 REVERT JUMPDEST POP CALLDATALOAD PUSH2 0xB9F JUMP JUMPDEST PUSH2 0x197 PUSH1 0x4 DUP1 CALLDATASIZE SUB PUSH1 0xA0 DUP2 LT ISZERO PUSH2 0x37F JUMPI PUSH1 0x0 DUP1 REVERT JUMPDEST POP PUSH1 0x1 PUSH1 0x1 PUSH1 0xA0 SHL SUB DUP2 CALLDATALOAD DUP2 AND SWAP2 PUSH1 0x20 DUP2 ADD CALLDATALOAD SWAP1 SWAP2 AND SWAP1 PUSH1 0x40 DUP2 ADD CALLDATALOAD SWAP1 PUSH1 0x60 DUP2 ADD CALLDATALOAD SWAP1 PUSH1 0x80 ADD CALLDATALOAD PUSH2 0xBED JUMP JUMPDEST PUSH2 0x211 PUSH2 0xDA5 JUMP JUMPDEST PUSH2 0x197 PUSH2 0xE61 JUMP JUMPDEST PUSH2 0x14F PUSH2 0xE67 JUMP JUMPDEST PUSH2 0x3CB PUSH2 0xE76 JUMP JUMPDEST PUSH1 0x40 MLOAD DUP1 DUP3 PUSH2 0x300 DUP1 DUP4 DUP4 PUSH1 0x0 JUMPDEST DUP4 DUP2 LT ISZERO PUSH2 0x3F1 JUMPI DUP2 DUP2 ADD MLOAD DUP4 DUP3 ADD MSTORE PUSH1 0x20 ADD PUSH2 0x3D9 JUMP JUMPDEST POP POP POP POP SWAP1 POP ADD SWAP2 POP POP PUSH1 0x40 MLOAD DUP1 SWAP2 SUB SWAP1 RETURN JUMPDEST PUSH2 0x197 PUSH1 0x4 DUP1 CALLDATASIZE SUB PUSH1 0x20 DUP2 LT ISZERO PUSH2 0x41A JUMPI PUSH1 0x0 DUP1 REVERT JUMPDEST POP CALLDATALOAD PUSH2 0xEC0 JUMP JUMPDEST PUSH2 0x197 PUSH1 0x4 DUP1 CALLDATASIZE SUB PUSH1 0x60 DUP2 LT ISZERO PUSH2 0x437 JUMPI PUSH1 0x0 DUP1 REVERT JUMPDEST POP DUP1 CALLDATALOAD SWAP1 PUSH1 0x20 DUP2 ADD CALLDATALOAD SWAP1 PUSH1 0x40 ADD CALLDATALOAD PUSH2 0xEDE JUMP JUMPDEST PUSH2 0x338 PUSH1 0x4 DUP1 CALLDATASIZE SUB PUSH1 0x40 DUP2 LT ISZERO PUSH2 0x460 JUMPI PUSH1 0x0 DUP1 REVERT JUMPDEST POP PUSH1 0x1 PUSH1 0x1 PUSH1 0xA0 SHL SUB DUP2 CALLDATALOAD AND SWAP1 PUSH1 0x20 ADD CALLDATALOAD PUSH2 0xF6F JUMP JUMPDEST PUSH2 0x197 PUSH2 0xFA0 JUMP JUMPDEST PUSH2 0x23F PUSH1 0x4 DUP1 CALLDATASIZE SUB PUSH1 0x60 DUP2 LT ISZERO PUSH2 0x494 JUMPI PUSH1 0x0 DUP1 REVERT JUMPDEST POP DUP1 CALLDATALOAD SWAP1 PUSH1 0x20 DUP2 ADD CALLDATALOAD SWAP1 PUSH1 0x40 ADD CALLDATALOAD PUSH2 0xFA5 JUMP JUMPDEST PUSH1 0x2 SLOAD PUSH1 0x1 PUSH1 0x1 PUSH1 0xA0 SHL SUB AND DUP2 JUMP JUMPDEST PUSH1 0x0 PUSH2 0x551 PUSH2 0x4C3 PUSH2 0xFC4 JUMP JUMPDEST PUSH1 0x1 PUSH1 0x1 PUSH1 0xA0 SHL SUB AND PUSH4 0xF1406DC8 DUP6 DUP6 PUSH1 0x40 MLOAD DUP4 PUSH4 0xFFFFFFFF AND PUSH1 0xE0 SHL DUP2 MSTORE PUSH1 0x4 ADD DUP1 DUP4 PUSH1 0x1 PUSH1 0x1 PUSH1 0xA0 SHL SUB AND PUSH1 0x1 PUSH1 0x1 PUSH1 0xA0 SHL SUB AND DUP2 MSTORE PUSH1 0x20 ADD DUP3 DUP2 MSTORE PUSH1 0x20 ADD SWAP3 POP POP POP PUSH1 0x20 PUSH1 0x40 MLOAD DUP1 DUP4 SUB DUP2 DUP7 DUP1 EXTCODESIZE ISZERO DUP1 ISZERO PUSH2 0x520 JUMPI PUSH1 0x0 DUP1 REVERT JUMPDEST POP GAS STATICCALL ISZERO DUP1 ISZERO PUSH2 0x534 JUMPI RETURNDATASIZE PUSH1 0x0 DUP1 RETURNDATACOPY RETURNDATASIZE PUSH1 0x0 REVERT JUMPDEST POP POP POP POP PUSH1 0x40 MLOAD RETURNDATASIZE PUSH1 0x20 DUP2 LT ISZERO PUSH2 0x54A JUMPI PUSH1 0x0 DUP1 REVERT JUMPDEST POP MLOAD PUSH2 0x1084 JUMP JUMPDEST SWAP1 POP JUMPDEST SWAP3 SWAP2 POP POP JUMP JUMPDEST PUSH1 0x0 DUP1 PUSH2 0x565 PUSH2 0x10D8 JUMP JUMPDEST SWAP1 POP CALLER PUSH1 0x1 PUSH1 0x1 PUSH1 0xA0 SHL SUB DUP3 AND EQ DUP1 PUSH2 0x5F2 JUMPI POP PUSH1 0x40 DUP1 MLOAD PUSH4 0x16B2213F PUSH1 0xE0 SHL DUP2 MSTORE CALLER PUSH1 0x4 DUP3 ADD MSTORE SWAP1 MLOAD PUSH1 0x0 SWAP2 PUSH1 0x1 PUSH1 0x1 PUSH1 0xA0 SHL SUB DUP5 AND SWAP2 PUSH4 0x16B2213F SWAP2 PUSH1 0x24 DUP1 DUP3 ADD SWAP3 PUSH1 0x20 SWAP3 SWAP1 SWAP2 SWAP1 DUP3 SWAP1 SUB ADD DUP2 DUP7 DUP1 EXTCODESIZE ISZERO DUP1 ISZERO PUSH2 0x5C3 JUMPI PUSH1 0x0 DUP1 REVERT JUMPDEST POP GAS STATICCALL ISZERO DUP1 ISZERO PUSH2 0x5D7 JUMPI RETURNDATASIZE PUSH1 0x0 DUP1 RETURNDATACOPY RETURNDATASIZE PUSH1 0x0 REVERT JUMPDEST POP POP POP POP PUSH1 0x40 MLOAD RETURNDATASIZE PUSH1 0x20 DUP2 LT ISZERO PUSH2 0x5ED JUMPI PUSH1 0x0 DUP1 REVERT JUMPDEST POP MLOAD EQ ISZERO JUMPDEST PUSH2 0x62D JUMPI PUSH1 0x40 MLOAD PUSH3 0x461BCD PUSH1 0xE5 SHL DUP2 MSTORE PUSH1 0x4 ADD DUP1 DUP1 PUSH1 0x20 ADD DUP3 DUP2 SUB DUP3 MSTORE PUSH1 0x41 DUP2 MSTORE PUSH1 0x20 ADD DUP1 PUSH2 0x2AB4 PUSH1 0x41 SWAP2 CODECOPY PUSH1 0x60 ADD SWAP2 POP POP PUSH1 0x40 MLOAD DUP1 SWAP2 SUB SWAP1 REVERT JUMPDEST PUSH2 0x63A DUP8 DUP8 DUP8 DUP8 DUP8 PUSH2 0x1157 JUMP JUMPDEST SWAP8 SWAP7 POP POP POP POP POP POP POP JUMP JUMPDEST PUSH1 0x0 SLOAD PUSH1 0x1 PUSH1 0x1 PUSH1 0xA0 SHL SUB AND CALLER EQ PUSH2 0x68E JUMPI PUSH1 0x40 MLOAD PUSH3 0x461BCD PUSH1 0xE5 SHL DUP2 MSTORE PUSH1 0x4 ADD DUP1 DUP1 PUSH1 0x20 ADD DUP3 DUP2 SUB DUP3 MSTORE PUSH1 0x2F DUP2 MSTORE PUSH1 0x20 ADD DUP1 PUSH2 0x2A64 PUSH1 0x2F SWAP2 CODECOPY PUSH1 0x40 ADD SWAP2 POP POP PUSH1 0x40 MLOAD DUP1 SWAP2 SUB SWAP1 REVERT JUMPDEST PUSH1 0x1 DUP1 SLOAD PUSH1 0x1 PUSH1 0x1 PUSH1 0xA0 SHL SUB DUP4 AND PUSH1 0x1 PUSH1 0x1 PUSH1 0xA0 SHL SUB NOT SWAP1 SWAP2 AND DUP2 OR SWAP1 SWAP2 SSTORE PUSH1 0x40 DUP1 MLOAD SWAP2 DUP3 MSTORE MLOAD PUSH32 0x906A1C6BD7E3091EA86693DD029A831C19049CE77F1DCE2CE0BAB1CACBABCE22 SWAP2 DUP2 SWAP1 SUB PUSH1 0x20 ADD SWAP1 LOG1 POP JUMP JUMPDEST PUSH1 0x0 DUP1 PUSH1 0x0 PUSH2 0x6F1 DUP6 DUP6 PUSH2 0x1615 JUMP JUMPDEST POP SWAP2 SWAP8 SWAP1 SWAP7 POP SWAP1 SWAP5 POP SWAP3 POP POP POP JUMP JUMPDEST PUSH1 0x0 PUSH2 0x551 DUP4 DUP4 PUSH2 0x18D1 JUMP JUMPDEST PUSH1 0x0 DUP1 PUSH1 0x0 DUP4 PUSH2 0x71A PUSH2 0x18D9 JUMP JUMPDEST PUSH1 0x1 PUSH1 0x1 PUSH1 0xA0 SHL SUB AND PUSH4 0x7118D431 PUSH1 0x40 MLOAD DUP2 PUSH4 0xFFFFFFFF AND PUSH1 0xE0 SHL DUP2 MSTORE PUSH1 0x4 ADD PUSH1 0x0 PUSH1 0x40 MLOAD DUP1 DUP4 SUB DUP2 DUP7 DUP1 EXTCODESIZE ISZERO DUP1 ISZERO PUSH2 0x752 JUMPI PUSH1 0x0 DUP1 REVERT JUMPDEST POP GAS STATICCALL ISZERO DUP1 ISZERO PUSH2 0x766 JUMPI RETURNDATASIZE PUSH1 0x0 DUP1 RETURNDATACOPY RETURNDATASIZE PUSH1 0x0 REVERT JUMPDEST POP POP POP POP PUSH2 0x772 PUSH2 0x18D9 JUMP JUMPDEST PUSH1 0x1 PUSH1 0x1 PUSH1 0xA0 SHL SUB AND PUSH4 0x42A28E21 DUP3 PUSH1 0x40 MLOAD DUP3 PUSH4 0xFFFFFFFF AND PUSH1 0xE0 SHL DUP2 MSTORE PUSH1 0x4 ADD DUP1 DUP3 DUP2 MSTORE PUSH1 0x20 ADD SWAP2 POP POP PUSH1 0x0 PUSH1 0x40 MLOAD DUP1 DUP4 SUB DUP2 DUP7 DUP1 EXTCODESIZE ISZERO DUP1 ISZERO PUSH2 0x7B5 JUMPI PUSH1 0x0 DUP1 REVERT JUMPDEST POP GAS STATICCALL ISZERO DUP1 ISZERO PUSH2 0x7C9 JUMPI RETURNDATASIZE PUSH1 0x0 DUP1 RETURNDATACOPY RETURNDATASIZE PUSH1 0x0 REVERT JUMPDEST POP POP POP POP PUSH2 0x7D7 DUP7 DUP7 PUSH2 0x1967 JUMP JUMPDEST SWAP4 POP SWAP4 POP SWAP4 POP POP SWAP3 POP SWAP3 POP SWAP3 JUMP JUMPDEST PUSH1 0x0 SLOAD PUSH1 0x1 PUSH1 0x1 PUSH1 0xA0 SHL SUB AND CALLER EQ PUSH2 0x82E JUMPI PUSH1 0x40 MLOAD PUSH3 0x461BCD PUSH1 0xE5 SHL DUP2 MSTORE PUSH1 0x4 ADD DUP1 DUP1 PUSH1 0x20 ADD DUP3 DUP2 SUB DUP3 MSTORE PUSH1 0x2F DUP2 MSTORE PUSH1 0x20 ADD DUP1 PUSH2 0x2A64 PUSH1 0x2F SWAP2 CODECOPY PUSH1 0x40 ADD SWAP2 POP POP PUSH1 0x40 MLOAD DUP1 SWAP2 SUB SWAP1 REVERT JUMPDEST PUSH1 0x2 DUP1 SLOAD PUSH1 0x1 PUSH1 0x1 PUSH1 0xA0 SHL SUB NOT AND PUSH1 0x1 PUSH1 0x1 PUSH1 0xA0 SHL SUB DUP4 AND OR SWAP1 SSTORE PUSH1 0x0 JUMPDEST PUSH1 0x4 SLOAD DUP2 LT ISZERO PUSH2 0x94F JUMPI PUSH1 0x0 PUSH1 0x4 DUP3 DUP2 SLOAD DUP2 LT PUSH2 0x865 JUMPI INVALID JUMPDEST PUSH1 0x0 SWAP2 DUP3 MSTORE PUSH1 0x20 SWAP2 DUP3 SWAP1 KECCAK256 ADD SLOAD PUSH1 0x2 SLOAD PUSH1 0x40 DUP1 MLOAD PUSH4 0xDACB2D01 PUSH1 0xE0 SHL DUP2 MSTORE PUSH1 0x4 DUP2 ADD DUP5 SWAP1 MSTORE PUSH1 0x24 DUP2 ADD DUP3 SWAP1 MSTORE PUSH1 0x17 PUSH1 0x44 DUP3 ADD MSTORE PUSH32 0x5265736F6C766572206D697373696E6720746172676574000000000000000000 PUSH1 0x64 DUP3 ADD MSTORE SWAP1 MLOAD SWAP3 SWAP5 POP PUSH1 0x1 PUSH1 0x1 PUSH1 0xA0 SHL SUB SWAP1 SWAP2 AND SWAP3 PUSH4 0xDACB2D01 SWAP3 PUSH1 0x84 DUP1 DUP5 ADD SWAP4 DUP3 SWAP1 SUB ADD DUP2 DUP7 DUP1 EXTCODESIZE ISZERO DUP1 ISZERO PUSH2 0x8EF JUMPI PUSH1 0x0 DUP1 REVERT JUMPDEST POP GAS STATICCALL ISZERO DUP1 ISZERO PUSH2 0x903 JUMPI RETURNDATASIZE PUSH1 0x0 DUP1 RETURNDATACOPY RETURNDATASIZE PUSH1 0x0 REVERT JUMPDEST POP POP POP POP PUSH1 0x40 MLOAD RETURNDATASIZE PUSH1 0x20 DUP2 LT ISZERO PUSH2 0x919 JUMPI PUSH1 0x0 DUP1 REVERT JUMPDEST POP MLOAD PUSH1 0x0 SWAP2 DUP3 MSTORE PUSH1 0x3 PUSH1 0x20 MSTORE PUSH1 0x40 SWAP1 SWAP2 KECCAK256 DUP1 SLOAD PUSH1 0x1 PUSH1 0x1 PUSH1 0xA0 SHL SUB NOT AND PUSH1 0x1 PUSH1 0x1 PUSH1 0xA0 SHL SUB SWAP1 SWAP3 AND SWAP2 SWAP1 SWAP2 OR SWAP1 SSTORE PUSH1 0x1 ADD PUSH2 0x84C JUMP JUMPDEST POP POP JUMP JUMPDEST DUP2 PUSH1 0x0 PUSH2 0x95E PUSH2 0x1C0B JUMP JUMPDEST PUSH1 0x1 PUSH1 0x1 PUSH1 0xA0 SHL SUB AND PUSH4 0x32608039 DUP7 PUSH1 0x40 MLOAD DUP3 PUSH4 0xFFFFFFFF AND PUSH1 0xE0 SHL DUP2 MSTORE PUSH1 0x4 ADD DUP1 DUP3 DUP2 MSTORE PUSH1 0x20 ADD SWAP2 POP POP PUSH1 0x20 PUSH1 0x40 MLOAD DUP1 DUP4 SUB DUP2 DUP7 DUP1 EXTCODESIZE ISZERO DUP1 ISZERO PUSH2 0x9A1 JUMPI PUSH1 0x0 DUP1 REVERT JUMPDEST POP GAS STATICCALL ISZERO DUP1 ISZERO PUSH2 0x9B5 JUMPI RETURNDATASIZE PUSH1 0x0 DUP1 RETURNDATACOPY RETURNDATASIZE PUSH1 0x0 REVERT JUMPDEST POP POP POP POP PUSH1 0x40 MLOAD RETURNDATASIZE PUSH1 0x20 DUP2 LT ISZERO PUSH2 0x9CB JUMPI PUSH1 0x0 DUP1 REVERT JUMPDEST POP MLOAD PUSH1 0x40 DUP1 MLOAD PUSH4 0x70A08231 PUSH1 0xE0 SHL DUP2 MSTORE PUSH1 0x1 PUSH1 0x1 PUSH1 0xA0 SHL SUB DUP10 DUP2 AND PUSH1 0x4 DUP4 ADD MSTORE SWAP2 MLOAD SWAP2 SWAP1 SWAP3 AND SWAP2 PUSH4 0x70A08231 SWAP2 PUSH1 0x24 DUP1 DUP4 ADD SWAP3 PUSH1 0x20 SWAP3 SWAP2 SWAP1 DUP3 SWAP1 SUB ADD DUP2 DUP7 DUP1 EXTCODESIZE ISZERO DUP1 ISZERO PUSH2 0xA17 JUMPI PUSH1 0x0 DUP1 REVERT JUMPDEST POP GAS STATICCALL ISZERO DUP1 ISZERO PUSH2 0xA2B JUMPI RETURNDATASIZE PUSH1 0x0 DUP1 RETURNDATACOPY RETURNDATASIZE PUSH1 0x0 REVERT JUMPDEST POP POP POP POP PUSH1 0x40 MLOAD RETURNDATASIZE PUSH1 0x20 DUP2 LT ISZERO PUSH2 0xA41 JUMPI PUSH1 0x0 DUP1 REVERT JUMPDEST POP MLOAD SWAP1 POP DUP1 DUP3 GT ISZERO PUSH2 0xA51 JUMPI DUP1 SWAP2 POP JUMPDEST DUP3 ISZERO PUSH2 0xA6A JUMPI PUSH2 0xA67 DUP3 DUP5 PUSH4 0xFFFFFFFF PUSH2 0x1C8C AND JUMP JUMPDEST SWAP2 POP JUMPDEST POP SWAP5 SWAP4 POP POP POP POP JUMP JUMPDEST PUSH1 0x1 SLOAD PUSH1 0x1 PUSH1 0x1 PUSH1 0xA0 SHL SUB AND DUP2 JUMP JUMPDEST PUSH1 0x2 SLOAD PUSH1 0x0 SWAP1 PUSH1 0x1 PUSH1 0x1 PUSH1 0xA0 SHL SUB DUP4 DUP2 AND SWAP2 AND EQ PUSH2 0xAA2 JUMPI POP PUSH1 0x0 PUSH2 0xB9A JUMP JUMPDEST PUSH1 0x0 JUMPDEST PUSH1 0x4 SLOAD DUP2 LT ISZERO PUSH2 0xB94 JUMPI PUSH1 0x0 PUSH1 0x4 DUP3 DUP2 SLOAD DUP2 LT PUSH2 0xABE JUMPI INVALID JUMPDEST PUSH1 0x0 SWAP2 DUP3 MSTORE PUSH1 0x20 DUP1 DUP4 KECCAK256 SWAP1 SWAP2 ADD SLOAD DUP1 DUP4 MSTORE PUSH1 0x3 DUP3 MSTORE PUSH1 0x40 SWAP3 DUP4 SWAP1 KECCAK256 SLOAD PUSH1 0x2 SLOAD DUP5 MLOAD PUSH4 0x21F8A721 PUSH1 0xE0 SHL DUP2 MSTORE PUSH1 0x4 DUP2 ADD DUP5 SWAP1 MSTORE SWAP5 MLOAD SWAP3 SWAP6 POP PUSH1 0x1 PUSH1 0x1 PUSH1 0xA0 SHL SUB SWAP2 DUP3 AND SWAP5 SWAP2 AND SWAP3 PUSH4 0x21F8A721 SWAP3 PUSH1 0x24 DUP1 DUP5 ADD SWAP4 DUP3 SWAP1 SUB ADD DUP2 DUP7 DUP1 EXTCODESIZE ISZERO DUP1 ISZERO PUSH2 0xB24 JUMPI PUSH1 0x0 DUP1 REVERT JUMPDEST POP GAS STATICCALL ISZERO DUP1 ISZERO PUSH2 0xB38 JUMPI RETURNDATASIZE PUSH1 0x0 DUP1 RETURNDATACOPY RETURNDATASIZE PUSH1 0x0 REVERT JUMPDEST POP POP POP POP PUSH1 0x40 MLOAD RETURNDATASIZE PUSH1 0x20 DUP2 LT ISZERO PUSH2 0xB4E JUMPI PUSH1 0x0 DUP1 REVERT JUMPDEST POP MLOAD PUSH1 0x1 PUSH1 0x1 PUSH1 0xA0 SHL SUB AND EQ ISZERO DUP1 PUSH2 0xB7B JUMPI POP PUSH1 0x0 DUP2 DUP2 MSTORE PUSH1 0x3 PUSH1 0x20 MSTORE PUSH1 0x40 SWAP1 KECCAK256 SLOAD PUSH1 0x1 PUSH1 0x1 PUSH1 0xA0 SHL SUB AND ISZERO JUMPDEST ISZERO PUSH2 0xB8B JUMPI PUSH1 0x0 SWAP3 POP POP POP PUSH2 0xB9A JUMP JUMPDEST POP PUSH1 0x1 ADD PUSH2 0xAA5 JUMP JUMPDEST POP PUSH1 0x1 SWAP1 POP JUMPDEST SWAP2 SWAP1 POP JUMP JUMPDEST PUSH1 0x0 SLOAD PUSH1 0x1 PUSH1 0x1 PUSH1 0xA0 SHL SUB AND CALLER EQ PUSH2 0xBE8 JUMPI PUSH1 0x40 MLOAD PUSH3 0x461BCD PUSH1 0xE5 SHL DUP2 MSTORE PUSH1 0x4 ADD DUP1 DUP1 PUSH1 0x20 ADD DUP3 DUP2 SUB DUP3 MSTORE PUSH1 0x2F DUP2 MSTORE PUSH1 0x20 ADD DUP1 PUSH2 0x2A64 PUSH1 0x2F SWAP2 CODECOPY PUSH1 0x40 ADD SWAP2 POP POP PUSH1 0x40 MLOAD DUP1 SWAP2 SUB SWAP1 REVERT JUMPDEST PUSH1 0x5 SSTORE JUMP JUMPDEST PUSH1 0x0 DUP1 PUSH2 0xBF8 PUSH2 0x10D8 JUMP JUMPDEST SWAP1 POP CALLER PUSH1 0x1 PUSH1 0x1 PUSH1 0xA0 SHL SUB DUP3 AND EQ DUP1 PUSH2 0xC85 JUMPI POP PUSH1 0x40 DUP1 MLOAD PUSH4 0x16B2213F PUSH1 0xE0 SHL DUP2 MSTORE CALLER PUSH1 0x4 DUP3 ADD MSTORE SWAP1 MLOAD PUSH1 0x0 SWAP2 PUSH1 0x1 PUSH1 0x1 PUSH1 0xA0 SHL SUB DUP5 AND SWAP2 PUSH4 0x16B2213F SWAP2 PUSH1 0x24 DUP1 DUP3 ADD SWAP3 PUSH1 0x20 SWAP3 SWAP1 SWAP2 SWAP1 DUP3 SWAP1 SUB ADD DUP2 DUP7 DUP1 EXTCODESIZE ISZERO DUP1 ISZERO PUSH2 0xC56 JUMPI PUSH1 0x0 DUP1 REVERT JUMPDEST POP GAS STATICCALL ISZERO DUP1 ISZERO PUSH2 0xC6A JUMPI RETURNDATASIZE PUSH1 0x0 DUP1 RETURNDATACOPY RETURNDATASIZE PUSH1 0x0 REVERT JUMPDEST POP POP POP POP PUSH1 0x40 MLOAD RETURNDATASIZE PUSH1 0x20 DUP2 LT ISZERO PUSH2 0xC80 JUMPI PUSH1 0x0 DUP1 REVERT JUMPDEST POP MLOAD EQ ISZERO JUMPDEST PUSH2 0xCC0 JUMPI PUSH1 0x40 MLOAD PUSH3 0x461BCD PUSH1 0xE5 SHL DUP2 MSTORE PUSH1 0x4 ADD DUP1 DUP1 PUSH1 0x20 ADD DUP3 DUP2 SUB DUP3 MSTORE PUSH1 0x41 DUP2 MSTORE PUSH1 0x20 ADD DUP1 PUSH2 0x2AB4 PUSH1 0x41 SWAP2 CODECOPY PUSH1 0x60 ADD SWAP2 POP POP PUSH1 0x40 MLOAD DUP1 SWAP2 SUB SWAP1 REVERT JUMPDEST PUSH2 0xCC8 PUSH2 0x1CE6 JUMP JUMPDEST PUSH1 0x40 DUP1 MLOAD PUSH4 0xFAF431BB PUSH1 0xE0 SHL DUP2 MSTORE PUSH1 0x1 PUSH1 0x1 PUSH1 0xA0 SHL SUB DUP11 DUP2 AND PUSH1 0x4 DUP4 ADD MSTORE DUP10 DUP2 AND PUSH1 0x24 DUP4 ADD MSTORE SWAP2 MLOAD SWAP3 SWAP1 SWAP2 AND SWAP2 PUSH4 0xFAF431BB SWAP2 PUSH1 0x44 DUP1 DUP3 ADD SWAP3 PUSH1 0x20 SWAP3 SWAP1 SWAP2 SWAP1 DUP3 SWAP1 SUB ADD DUP2 DUP7 DUP1 EXTCODESIZE ISZERO DUP1 ISZERO PUSH2 0xD1B JUMPI PUSH1 0x0 DUP1 REVERT JUMPDEST POP GAS STATICCALL ISZERO DUP1 ISZERO PUSH2 0xD2F JUMPI RETURNDATASIZE PUSH1 0x0 DUP1 RETURNDATACOPY RETURNDATASIZE PUSH1 0x0 REVERT JUMPDEST POP POP POP POP PUSH1 0x40 MLOAD RETURNDATASIZE PUSH1 0x20 DUP2 LT ISZERO PUSH2 0xD45 JUMPI PUSH1 0x0 DUP1 REVERT JUMPDEST POP MLOAD PUSH2 0xD98 JUMPI PUSH1 0x40 DUP1 MLOAD PUSH3 0x461BCD PUSH1 0xE5 SHL DUP2 MSTORE PUSH1 0x20 PUSH1 0x4 DUP3 ADD MSTORE PUSH1 0x1D PUSH1 0x24 DUP3 ADD MSTORE PUSH32 0x4E6F7420617070726F76656420746F20616374206F6E20626568616C66000000 PUSH1 0x44 DUP3 ADD MSTORE SWAP1 MLOAD SWAP1 DUP2 SWAP1 SUB PUSH1 0x64 ADD SWAP1 REVERT JUMPDEST PUSH2 0x63A DUP8 DUP7 DUP7 DUP7 DUP12 PUSH2 0x1157 JUMP JUMPDEST PUSH1 0x1 SLOAD PUSH1 0x1 PUSH1 0x1 PUSH1 0xA0 SHL SUB AND CALLER EQ PUSH2 0xDEE JUMPI PUSH1 0x40 MLOAD PUSH3 0x461BCD PUSH1 0xE5 SHL DUP2 MSTORE PUSH1 0x4 ADD DUP1 DUP1 PUSH1 0x20 ADD DUP3 DUP2 SUB DUP3 MSTORE PUSH1 0x35 DUP2 MSTORE PUSH1 0x20 ADD DUP1 PUSH2 0x2A0E PUSH1 0x35 SWAP2 CODECOPY PUSH1 0x40 ADD SWAP2 POP POP PUSH1 0x40 MLOAD DUP1 SWAP2 SUB SWAP1 REVERT JUMPDEST PUSH1 0x0 SLOAD PUSH1 0x1 SLOAD PUSH1 0x40 DUP1 MLOAD PUSH1 0x1 PUSH1 0x1 PUSH1 0xA0 SHL SUB SWAP4 DUP5 AND DUP2 MSTORE SWAP3 SWAP1 SWAP2 AND PUSH1 0x20 DUP4 ADD MSTORE DUP1 MLOAD PUSH32 0xB532073B38C83145E3E5135377A08BF9AAB55BC0FD7C1179CD4FB995D2A5159C SWAP3 DUP2 SWAP1 SUB SWAP1 SWAP2 ADD SWAP1 LOG1 PUSH1 0x1 DUP1 SLOAD PUSH1 0x0 DUP1 SLOAD PUSH1 0x1 PUSH1 0x1 PUSH1 0xA0 SHL SUB NOT SWAP1 DUP2 AND PUSH1 0x1 PUSH1 0x1 PUSH1 0xA0 SHL SUB DUP5 AND OR SWAP1 SWAP2 SSTORE AND SWAP1 SSTORE JUMP JUMPDEST PUSH1 0x5 SLOAD DUP2 JUMP JUMPDEST PUSH1 0x0 SLOAD PUSH1 0x1 PUSH1 0x1 PUSH1 0xA0 SHL SUB AND DUP2 JUMP JUMPDEST PUSH2 0xE7E PUSH2 0x29A3 JUMP JUMPDEST PUSH1 0x0 JUMPDEST PUSH1 0x4 SLOAD DUP2 LT ISZERO PUSH2 0xEBC JUMPI PUSH1 0x4 DUP2 DUP2 SLOAD DUP2 LT PUSH2 0xE98 JUMPI INVALID JUMPDEST SWAP1 PUSH1 0x0 MSTORE PUSH1 0x20 PUSH1 0x0 KECCAK256 ADD SLOAD DUP3 DUP3 PUSH1 0x18 DUP2 LT PUSH2 0xEAF JUMPI INVALID JUMPDEST PUSH1 0x20 MUL ADD MSTORE PUSH1 0x1 ADD PUSH2 0xE81 JUMP JUMPDEST POP SWAP1 JUMP JUMPDEST PUSH1 0x4 DUP2 DUP2 SLOAD DUP2 LT PUSH2 0xECD JUMPI INVALID JUMPDEST PUSH1 0x0 SWAP2 DUP3 MSTORE PUSH1 0x20 SWAP1 SWAP2 KECCAK256 ADD SLOAD SWAP1 POP DUP2 JUMP JUMPDEST PUSH1 0x0 PUSH2 0xEE8 PUSH2 0x1D61 JUMP JUMPDEST PUSH1 0x1 PUSH1 0x1 PUSH1 0xA0 SHL SUB AND PUSH4 0x654A60AC DUP6 DUP6 DUP6 PUSH1 0x40 MLOAD DUP5 PUSH4 0xFFFFFFFF AND PUSH1 0xE0 SHL DUP2 MSTORE PUSH1 0x4 ADD DUP1 DUP5 DUP2 MSTORE PUSH1 0x20 ADD DUP4 DUP2 MSTORE PUSH1 0x20 ADD DUP3 DUP2 MSTORE PUSH1 0x20 ADD SWAP4 POP POP POP POP PUSH1 0x20 PUSH1 0x40 MLOAD DUP1 DUP4 SUB DUP2 DUP7 DUP1 EXTCODESIZE ISZERO DUP1 ISZERO PUSH2 0xF3B JUMPI PUSH1 0x0 DUP1 REVERT JUMPDEST POP GAS STATICCALL ISZERO DUP1 ISZERO PUSH2 0xF4F JUMPI RETURNDATASIZE PUSH1 0x0 DUP1 RETURNDATACOPY RETURNDATASIZE PUSH1 0x0 REVERT JUMPDEST POP POP POP POP PUSH1 0x40 MLOAD RETURNDATASIZE PUSH1 0x20 DUP2 LT ISZERO PUSH2 0xF65 JUMPI PUSH1 0x0 DUP1 REVERT JUMPDEST POP MLOAD SWAP5 SWAP4 POP POP POP POP JUMP JUMPDEST PUSH1 0x0 PUSH2 0xF7B DUP4 DUP4 PUSH2 0x4B6 JUMP JUMPDEST ISZERO PUSH2 0xF88 JUMPI POP PUSH1 0x1 PUSH2 0x554 JUMP JUMPDEST PUSH1 0x0 PUSH2 0xF94 DUP5 DUP5 PUSH2 0x6E2 JUMP JUMPDEST POP POP ISZERO ISZERO SWAP5 SWAP4 POP POP POP POP JUMP JUMPDEST PUSH1 0x18 DUP2 JUMP JUMPDEST PUSH1 0x0 DUP1 PUSH1 0x0 PUSH2 0xFB5 DUP7 DUP7 DUP7 PUSH2 0x1DF0 JUMP JUMPDEST SWAP2 SWAP9 SWAP1 SWAP8 POP SWAP1 SWAP6 POP SWAP4 POP POP POP POP JUMP JUMPDEST PUSH1 0x2 SLOAD PUSH1 0x40 DUP1 MLOAD PUSH4 0xDACB2D01 PUSH1 0xE0 SHL DUP2 MSTORE PUSH13 0x45786368616E67655374617465 PUSH1 0x98 SHL PUSH1 0x4 DUP3 ADD MSTORE PUSH1 0x24 DUP2 ADD DUP3 SWAP1 MSTORE PUSH1 0x1D PUSH1 0x44 DUP3 ADD MSTORE PUSH32 0x4D697373696E672045786368616E676553746174652061646472657373000000 PUSH1 0x64 DUP3 ADD MSTORE SWAP1 MLOAD PUSH1 0x0 SWAP3 PUSH1 0x1 PUSH1 0x1 PUSH1 0xA0 SHL SUB AND SWAP2 PUSH4 0xDACB2D01 SWAP2 PUSH1 0x84 DUP1 DUP4 ADD SWAP3 PUSH1 0x20 SWAP3 SWAP2 SWAP1 DUP3 SWAP1 SUB ADD DUP2 DUP7 DUP1 EXTCODESIZE ISZERO DUP1 ISZERO PUSH2 0x1053 JUMPI PUSH1 0x0 DUP1 REVERT JUMPDEST POP GAS STATICCALL ISZERO DUP1 ISZERO PUSH2 0x1067 JUMPI RETURNDATASIZE PUSH1 0x0 DUP1 RETURNDATACOPY RETURNDATASIZE PUSH1 0x0 REVERT JUMPDEST POP POP POP POP PUSH1 0x40 MLOAD RETURNDATASIZE PUSH1 0x20 DUP2 LT ISZERO PUSH2 0x107D JUMPI PUSH1 0x0 DUP1 REVERT JUMPDEST POP MLOAD SWAP1 POP SWAP1 JUMP JUMPDEST PUSH1 0x0 DUP2 ISZERO DUP1 PUSH2 0x10A6 JUMPI POP PUSH1 0x5 SLOAD PUSH2 0x10A2 SWAP1 DUP4 SWAP1 PUSH4 0xFFFFFFFF PUSH2 0x1C8C AND JUMP JUMPDEST TIMESTAMP LT ISZERO JUMPDEST ISZERO PUSH2 0x10B3 JUMPI POP PUSH1 0x0 PUSH2 0xB9A JUMP JUMPDEST PUSH2 0x554 TIMESTAMP PUSH2 0x10CC PUSH1 0x5 SLOAD DUP6 PUSH2 0x1C8C SWAP1 SWAP2 SWAP1 PUSH4 0xFFFFFFFF AND JUMP JUMPDEST SWAP1 PUSH4 0xFFFFFFFF PUSH2 0x1E37 AND JUMP JUMPDEST PUSH1 0x2 SLOAD PUSH1 0x40 DUP1 MLOAD PUSH4 0xDACB2D01 PUSH1 0xE0 SHL DUP2 MSTORE PUSH5 0x4F696B6F73 PUSH1 0xD8 SHL PUSH1 0x4 DUP3 ADD MSTORE PUSH1 0x24 DUP2 ADD DUP3 SWAP1 MSTORE PUSH1 0x15 PUSH1 0x44 DUP3 ADD MSTORE PUSH21 0x4D697373696E67204F696B6F732061646472657373 PUSH1 0x58 SHL PUSH1 0x64 DUP3 ADD MSTORE SWAP1 MLOAD PUSH1 0x0 SWAP3 PUSH1 0x1 PUSH1 0x1 PUSH1 0xA0 SHL SUB AND SWAP2 PUSH4 0xDACB2D01 SWAP2 PUSH1 0x84 DUP1 DUP4 ADD SWAP3 PUSH1 0x20 SWAP3 SWAP2 SWAP1 DUP3 SWAP1 SUB ADD DUP2 DUP7 DUP1 EXTCODESIZE ISZERO DUP1 ISZERO PUSH2 0x1053 JUMPI PUSH1 0x0 DUP1 REVERT JUMPDEST PUSH1 0x0 DUP3 DUP6 EQ ISZERO PUSH2 0x11A4 JUMPI PUSH1 0x40 DUP1 MLOAD PUSH3 0x461BCD PUSH1 0xE5 SHL DUP2 MSTORE PUSH1 0x20 PUSH1 0x4 DUP3 ADD MSTORE PUSH1 0x13 PUSH1 0x24 DUP3 ADD MSTORE PUSH19 0x86C2DC4EE840C4CA40E6C2DACA40E6F2DCE8D PUSH1 0x6B SHL PUSH1 0x44 DUP3 ADD MSTORE SWAP1 MLOAD SWAP1 DUP2 SWAP1 SUB PUSH1 0x64 ADD SWAP1 REVERT JUMPDEST PUSH1 0x0 DUP5 GT PUSH2 0x11E7 JUMPI PUSH1 0x40 DUP1 MLOAD PUSH3 0x461BCD PUSH1 0xE5 SHL DUP2 MSTORE PUSH1 0x20 PUSH1 0x4 DUP3 ADD MSTORE PUSH1 0xB PUSH1 0x24 DUP3 ADD MSTORE PUSH11 0x16995C9BC8185B5BDD5B9D PUSH1 0xAA SHL PUSH1 0x44 DUP3 ADD MSTORE SWAP1 MLOAD SWAP1 DUP2 SWAP1 SUB PUSH1 0x64 ADD SWAP1 REVERT JUMPDEST PUSH1 0x40 DUP1 MLOAD PUSH1 0x2 DUP1 DUP3 MSTORE PUSH1 0x60 DUP1 DUP4 ADD DUP5 MSTORE SWAP3 PUSH1 0x20 DUP4 ADD SWAP1 DUP1 CODESIZE DUP4 CODECOPY ADD SWAP1 POP POP SWAP1 POP DUP6 DUP2 PUSH1 0x0 DUP2 MLOAD DUP2 LT PUSH2 0x1215 JUMPI INVALID JUMPDEST PUSH1 0x20 MUL PUSH1 0x20 ADD ADD DUP2 DUP2 MSTORE POP POP DUP4 DUP2 PUSH1 0x1 DUP2 MLOAD DUP2 LT PUSH2 0x122F JUMPI INVALID JUMPDEST PUSH1 0x20 MUL PUSH1 0x20 ADD ADD DUP2 DUP2 MSTORE POP POP PUSH2 0x1243 PUSH2 0x1D61 JUMP JUMPDEST PUSH1 0x1 PUSH1 0x1 PUSH1 0xA0 SHL SUB AND PUSH4 0x2D227674 DUP3 PUSH1 0x40 MLOAD DUP3 PUSH4 0xFFFFFFFF AND PUSH1 0xE0 SHL DUP2 MSTORE PUSH1 0x4 ADD DUP1 DUP1 PUSH1 0x20 ADD DUP3 DUP2 SUB DUP3 MSTORE DUP4 DUP2 DUP2 MLOAD DUP2 MSTORE PUSH1 0x20 ADD SWAP2 POP DUP1 MLOAD SWAP1 PUSH1 0x20 ADD SWAP1 PUSH1 0x20 MUL DUP1 DUP4 DUP4 PUSH1 0x0 JUMPDEST DUP4 DUP2 LT ISZERO PUSH2 0x12A1 JUMPI DUP2 DUP2 ADD MLOAD DUP4 DUP3 ADD MSTORE PUSH1 0x20 ADD PUSH2 0x1289 JUMP JUMPDEST POP POP POP POP SWAP1 POP ADD SWAP3 POP POP POP PUSH1 0x20 PUSH1 0x40 MLOAD DUP1 DUP4 SUB DUP2 DUP7 DUP1 EXTCODESIZE ISZERO DUP1 ISZERO PUSH2 0x12C4 JUMPI PUSH1 0x0 DUP1 REVERT JUMPDEST POP GAS STATICCALL ISZERO DUP1 ISZERO PUSH2 0x12D8 JUMPI RETURNDATASIZE PUSH1 0x0 DUP1 RETURNDATACOPY RETURNDATASIZE PUSH1 0x0 REVERT JUMPDEST POP POP POP POP PUSH1 0x40 MLOAD RETURNDATASIZE PUSH1 0x20 DUP2 LT ISZERO PUSH2 0x12EE JUMPI PUSH1 0x0 DUP1 REVERT JUMPDEST POP MLOAD ISZERO PUSH2 0x1342 JUMPI PUSH1 0x40 DUP1 MLOAD PUSH3 0x461BCD PUSH1 0xE5 SHL DUP2 MSTORE PUSH1 0x20 PUSH1 0x4 DUP3 ADD DUP2 SWAP1 MSTORE PUSH1 0x24 DUP3 ADD MSTORE PUSH32 0x5372632F646573742072617465207374616C65206F72206E6F7420666F756E64 PUSH1 0x44 DUP3 ADD MSTORE SWAP1 MLOAD SWAP1 DUP2 SWAP1 SUB PUSH1 0x64 ADD SWAP1 REVERT JUMPDEST PUSH1 0x0 DUP1 PUSH2 0x134F DUP10 DUP10 PUSH2 0x1967 JUMP JUMPDEST SWAP1 SWAP4 POP SWAP2 POP DUP8 SWAP1 POP DUP2 ISZERO PUSH2 0x137D JUMPI PUSH2 0x1369 DUP11 DUP11 DUP11 DUP7 PUSH2 0x953 JUMP JUMPDEST SWAP1 POP DUP1 PUSH2 0x137D JUMPI PUSH1 0x0 SWAP5 POP POP POP POP POP PUSH2 0x160C JUMP JUMPDEST PUSH2 0x1385 PUSH2 0x1C0B JUMP JUMPDEST PUSH1 0x1 PUSH1 0x1 PUSH1 0xA0 SHL SUB AND PUSH4 0x32608039 DUP11 PUSH1 0x40 MLOAD DUP3 PUSH4 0xFFFFFFFF AND PUSH1 0xE0 SHL DUP2 MSTORE PUSH1 0x4 ADD DUP1 DUP3 DUP2 MSTORE PUSH1 0x20 ADD SWAP2 POP POP PUSH1 0x20 PUSH1 0x40 MLOAD DUP1 DUP4 SUB DUP2 DUP7 DUP1 EXTCODESIZE ISZERO DUP1 ISZERO PUSH2 0x13C8 JUMPI PUSH1 0x0 DUP1 REVERT JUMPDEST POP GAS STATICCALL ISZERO DUP1 ISZERO PUSH2 0x13DC JUMPI RETURNDATASIZE PUSH1 0x0 DUP1 RETURNDATACOPY RETURNDATASIZE PUSH1 0x0 REVERT JUMPDEST POP POP POP POP PUSH1 0x40 MLOAD RETURNDATASIZE PUSH1 0x20 DUP2 LT ISZERO PUSH2 0x13F2 JUMPI PUSH1 0x0 DUP1 REVERT JUMPDEST POP MLOAD PUSH1 0x40 DUP1 MLOAD PUSH4 0x2770A7EB PUSH1 0xE2 SHL DUP2 MSTORE PUSH1 0x1 PUSH1 0x1 PUSH1 0xA0 SHL SUB DUP14 DUP2 AND PUSH1 0x4 DUP4 ADD MSTORE PUSH1 0x24 DUP3 ADD DUP13 SWAP1 MSTORE SWAP2 MLOAD SWAP2 SWAP1 SWAP3 AND SWAP2 PUSH4 0x9DC29FAC SWAP2 PUSH1 0x44 DUP1 DUP4 ADD SWAP3 PUSH1 0x0 SWAP3 SWAP2 SWAP1 DUP3 SWAP1 SUB ADD DUP2 DUP4 DUP8 DUP1 EXTCODESIZE ISZERO DUP1 ISZERO PUSH2 0x1446 JUMPI PUSH1 0x0 DUP1 REVERT JUMPDEST POP GAS CALL ISZERO DUP1 ISZERO PUSH2 0x145A JUMPI RETURNDATASIZE PUSH1 0x0 DUP1 RETURNDATACOPY RETURNDATASIZE PUSH1 0x0 REVERT JUMPDEST POP POP POP POP PUSH1 0x0 DUP1 PUSH2 0x146C DUP11 DUP13 DUP12 PUSH2 0x1DF0 JUMP JUMPDEST SWAP2 SWAP9 POP SWAP3 POP SWAP1 POP PUSH2 0x147B PUSH2 0x1C0B JUMP JUMPDEST PUSH1 0x1 PUSH1 0x1 PUSH1 0xA0 SHL SUB AND PUSH4 0x32608039 DUP11 PUSH1 0x40 MLOAD DUP3 PUSH4 0xFFFFFFFF AND PUSH1 0xE0 SHL DUP2 MSTORE PUSH1 0x4 ADD DUP1 DUP3 DUP2 MSTORE PUSH1 0x20 ADD SWAP2 POP POP PUSH1 0x20 PUSH1 0x40 MLOAD DUP1 DUP4 SUB DUP2 DUP7 DUP1 EXTCODESIZE ISZERO DUP1 ISZERO PUSH2 0x14BE JUMPI PUSH1 0x0 DUP1 REVERT JUMPDEST POP GAS STATICCALL ISZERO DUP1 ISZERO PUSH2 0x14D2 JUMPI RETURNDATASIZE PUSH1 0x0 DUP1 RETURNDATACOPY RETURNDATASIZE PUSH1 0x0 REVERT JUMPDEST POP POP POP POP PUSH1 0x40 MLOAD RETURNDATASIZE PUSH1 0x20 DUP2 LT ISZERO PUSH2 0x14E8 JUMPI PUSH1 0x0 DUP1 REVERT JUMPDEST POP MLOAD PUSH1 0x40 DUP1 MLOAD PUSH4 0x219E412D PUSH1 0xE2 SHL DUP2 MSTORE PUSH1 0x1 PUSH1 0x1 PUSH1 0xA0 SHL SUB DUP12 DUP2 AND PUSH1 0x4 DUP4 ADD MSTORE PUSH1 0x24 DUP3 ADD DUP12 SWAP1 MSTORE SWAP2 MLOAD SWAP2 SWAP1 SWAP3 AND SWAP2 PUSH4 0x867904B4 SWAP2 PUSH1 0x44 DUP1 DUP4 ADD SWAP3 PUSH1 0x0 SWAP3 SWAP2 SWAP1 DUP3 SWAP1 SUB ADD DUP2 DUP4 DUP8 DUP1 EXTCODESIZE ISZERO DUP1 ISZERO PUSH2 0x153C JUMPI PUSH1 0x0 DUP1 REVERT JUMPDEST POP GAS CALL ISZERO DUP1 ISZERO PUSH2 0x1550 JUMPI RETURNDATASIZE PUSH1 0x0 DUP1 RETURNDATACOPY RETURNDATASIZE PUSH1 0x0 REVERT JUMPDEST POP POP POP POP PUSH1 0x0 DUP3 GT ISZERO PUSH2 0x1567 JUMPI PUSH2 0x1567 DUP3 DUP11 PUSH2 0x1E94 JUMP JUMPDEST PUSH2 0x156F PUSH2 0x10D8 JUMP JUMPDEST PUSH1 0x40 DUP1 MLOAD PUSH4 0x6C00F31 PUSH1 0xE4 SHL DUP2 MSTORE PUSH1 0x1 PUSH1 0x1 PUSH1 0xA0 SHL SUB DUP16 DUP2 AND PUSH1 0x4 DUP4 ADD MSTORE PUSH1 0x24 DUP3 ADD DUP16 SWAP1 MSTORE PUSH1 0x44 DUP3 ADD DUP15 SWAP1 MSTORE PUSH1 0x64 DUP3 ADD DUP14 SWAP1 MSTORE PUSH1 0x84 DUP3 ADD DUP12 SWAP1 MSTORE DUP12 DUP2 AND PUSH1 0xA4 DUP4 ADD MSTORE SWAP2 MLOAD SWAP3 SWAP1 SWAP2 AND SWAP2 PUSH4 0x6C00F310 SWAP2 PUSH1 0xC4 DUP1 DUP3 ADD SWAP3 PUSH1 0x0 SWAP3 SWAP1 SWAP2 SWAP1 DUP3 SWAP1 SUB ADD DUP2 DUP4 DUP8 DUP1 EXTCODESIZE ISZERO DUP1 ISZERO PUSH2 0x15DF JUMPI PUSH1 0x0 DUP1 REVERT JUMPDEST POP GAS CALL ISZERO DUP1 ISZERO PUSH2 0x15F3 JUMPI RETURNDATASIZE PUSH1 0x0 DUP1 RETURNDATACOPY RETURNDATASIZE PUSH1 0x0 REVERT JUMPDEST POP POP POP POP PUSH2 0x1605 DUP9 DUP13 DUP13 DUP13 DUP12 DUP7 PUSH2 0x20ED JUMP JUMPDEST POP POP POP POP POP POP JUMPDEST SWAP6 SWAP5 POP POP POP POP POP JUMP JUMPDEST PUSH1 0x0 DUP1 PUSH1 0x0 PUSH1 0x60 PUSH2 0x1624 PUSH2 0xFC4 JUMP JUMPDEST PUSH1 0x1 PUSH1 0x1 PUSH1 0xA0 SHL SUB AND PUSH4 0xB44E9753 DUP8 DUP8 PUSH1 0x40 MLOAD DUP4 PUSH4 0xFFFFFFFF AND PUSH1 0xE0 SHL DUP2 MSTORE PUSH1 0x4 ADD DUP1 DUP4 PUSH1 0x1 PUSH1 0x1 PUSH1 0xA0 SHL SUB AND PUSH1 0x1 PUSH1 0x1 PUSH1 0xA0 SHL SUB AND DUP2 MSTORE PUSH1 0x20 ADD DUP3 DUP2 MSTORE PUSH1 0x20 ADD SWAP3 POP POP POP PUSH1 0x20 PUSH1 0x40 MLOAD DUP1 DUP4 SUB DUP2 DUP7 DUP1 EXTCODESIZE ISZERO DUP1 ISZERO PUSH2 0x1681 JUMPI PUSH1 0x0 DUP1 REVERT JUMPDEST POP GAS STATICCALL ISZERO DUP1 ISZERO PUSH2 0x1695 JUMPI RETURNDATASIZE PUSH1 0x0 DUP1 RETURNDATACOPY RETURNDATASIZE PUSH1 0x0 REVERT JUMPDEST POP POP POP POP PUSH1 0x40 MLOAD RETURNDATASIZE PUSH1 0x20 DUP2 LT ISZERO PUSH2 0x16AB JUMPI PUSH1 0x0 DUP1 REVERT JUMPDEST POP MLOAD PUSH1 0x40 DUP1 MLOAD DUP3 DUP2 MSTORE PUSH1 0x20 DUP1 DUP5 MUL DUP3 ADD ADD SWAP1 SWAP2 MSTORE SWAP1 SWAP3 POP PUSH1 0x60 SWAP1 DUP4 DUP1 ISZERO PUSH2 0x16EC JUMPI DUP2 PUSH1 0x20 ADD JUMPDEST PUSH2 0x16D9 PUSH2 0x29C2 JUMP JUMPDEST DUP2 MSTORE PUSH1 0x20 ADD SWAP1 PUSH1 0x1 SWAP1 SUB SWAP1 DUP2 PUSH2 0x16D1 JUMPI SWAP1 POP JUMPDEST POP SWAP1 POP PUSH1 0x0 JUMPDEST DUP4 DUP2 LT ISZERO PUSH2 0x18C5 JUMPI PUSH1 0x0 DUP1 PUSH2 0x1705 PUSH2 0x29C2 JUMP JUMPDEST PUSH2 0x1710 DUP12 DUP12 DUP7 PUSH2 0x22FE JUMP JUMPDEST SWAP1 POP PUSH1 0x0 DUP1 PUSH2 0x171E DUP4 PUSH2 0x2419 JUMP JUMPDEST SWAP2 POP SWAP2 POP PUSH1 0x0 PUSH2 0x172C PUSH2 0x1D61 JUMP JUMPDEST PUSH1 0x1 PUSH1 0x1 PUSH1 0xA0 SHL SUB AND PUSH4 0x266DA16B DUP6 PUSH1 0x0 ADD MLOAD DUP7 PUSH1 0x20 ADD MLOAD DUP8 PUSH1 0x40 ADD MLOAD DUP8 DUP8 PUSH1 0x40 MLOAD DUP7 PUSH4 0xFFFFFFFF AND PUSH1 0xE0 SHL DUP2 MSTORE PUSH1 0x4 ADD DUP1 DUP7 DUP2 MSTORE PUSH1 0x20 ADD DUP6 DUP2 MSTORE PUSH1 0x20 ADD DUP5 DUP2 MSTORE PUSH1 0x20 ADD DUP4 DUP2 MSTORE PUSH1 0x20 ADD DUP3 DUP2 MSTORE PUSH1 0x20 ADD SWAP6 POP POP POP POP POP POP PUSH1 0x20 PUSH1 0x40 MLOAD DUP1 DUP4 SUB DUP2 DUP7 DUP1 EXTCODESIZE ISZERO DUP1 ISZERO PUSH2 0x179B JUMPI PUSH1 0x0 DUP1 REVERT JUMPDEST POP GAS STATICCALL ISZERO DUP1 ISZERO PUSH2 0x17AF JUMPI RETURNDATASIZE PUSH1 0x0 DUP1 RETURNDATACOPY RETURNDATASIZE PUSH1 0x0 REVERT JUMPDEST POP POP POP POP PUSH1 0x40 MLOAD RETURNDATASIZE PUSH1 0x20 DUP2 LT ISZERO PUSH2 0x17C5 JUMPI PUSH1 0x0 DUP1 REVERT JUMPDEST POP MLOAD PUSH1 0x80 DUP6 ADD MLOAD SWAP1 SWAP2 POP PUSH1 0x0 SWAP1 PUSH2 0x17DD SWAP1 DUP4 SWAP1 PUSH2 0x2565 JUMP JUMPDEST SWAP1 POP DUP1 DUP6 PUSH1 0x60 ADD MLOAD GT ISZERO PUSH2 0x1819 JUMPI PUSH1 0x60 DUP6 ADD MLOAD PUSH2 0x1800 SWAP1 DUP3 PUSH4 0xFFFFFFFF PUSH2 0x1E37 AND JUMP JUMPDEST SWAP7 POP PUSH2 0x1812 DUP14 DUP9 PUSH4 0xFFFFFFFF PUSH2 0x1C8C AND JUMP JUMPDEST SWAP13 POP PUSH2 0x1850 JUMP JUMPDEST DUP5 PUSH1 0x60 ADD MLOAD DUP2 GT ISZERO PUSH2 0x1850 JUMPI PUSH1 0x60 DUP6 ADD MLOAD PUSH2 0x183B SWAP1 DUP3 SWAP1 PUSH4 0xFFFFFFFF PUSH2 0x1E37 AND JUMP JUMPDEST SWAP6 POP PUSH2 0x184D DUP13 DUP8 PUSH4 0xFFFFFFFF PUSH2 0x1C8C AND JUMP JUMPDEST SWAP12 POP JUMPDEST PUSH1 0x40 MLOAD DUP1 PUSH2 0x100 ADD PUSH1 0x40 MSTORE DUP1 DUP7 PUSH1 0x0 ADD MLOAD DUP2 MSTORE PUSH1 0x20 ADD DUP7 PUSH1 0x20 ADD MLOAD DUP2 MSTORE PUSH1 0x20 ADD DUP7 PUSH1 0x40 ADD MLOAD DUP2 MSTORE PUSH1 0x20 ADD DUP9 DUP2 MSTORE PUSH1 0x20 ADD DUP8 DUP2 MSTORE PUSH1 0x20 ADD DUP6 DUP2 MSTORE PUSH1 0x20 ADD DUP5 DUP2 MSTORE PUSH1 0x20 ADD DUP7 PUSH1 0xA0 ADD MLOAD DUP2 MSTORE POP DUP10 DUP10 DUP2 MLOAD DUP2 LT PUSH2 0x18A6 JUMPI INVALID JUMPDEST PUSH1 0x20 MUL PUSH1 0x20 ADD ADD DUP2 SWAP1 MSTORE POP POP POP POP POP POP POP POP DUP1 DUP1 PUSH1 0x1 ADD SWAP2 POP POP PUSH2 0x16F2 JUMP JUMPDEST POP SWAP1 POP SWAP3 SWAP6 SWAP2 SWAP5 POP SWAP3 POP JUMP JUMPDEST POP PUSH1 0x0 SWAP2 SWAP1 POP JUMP JUMPDEST PUSH1 0x2 SLOAD PUSH1 0x40 DUP1 MLOAD PUSH4 0xDACB2D01 PUSH1 0xE0 SHL DUP2 MSTORE PUSH12 0x53797374656D537461747573 PUSH1 0xA0 SHL PUSH1 0x4 DUP3 ADD MSTORE PUSH1 0x24 DUP2 ADD DUP3 SWAP1 MSTORE PUSH1 0x1C PUSH1 0x44 DUP3 ADD MSTORE PUSH32 0x4D697373696E672053797374656D537461747573206164647265737300000000 PUSH1 0x64 DUP3 ADD MSTORE SWAP1 MLOAD PUSH1 0x0 SWAP3 PUSH1 0x1 PUSH1 0x1 PUSH1 0xA0 SHL SUB AND SWAP2 PUSH4 0xDACB2D01 SWAP2 PUSH1 0x84 DUP1 DUP4 ADD SWAP3 PUSH1 0x20 SWAP3 SWAP2 SWAP1 DUP3 SWAP1 SUB ADD DUP2 DUP7 DUP1 EXTCODESIZE ISZERO DUP1 ISZERO PUSH2 0x1053 JUMPI PUSH1 0x0 DUP1 REVERT JUMPDEST PUSH1 0x0 DUP1 PUSH1 0x0 PUSH2 0x1976 DUP6 DUP6 PUSH2 0x4B6 JUMP JUMPDEST ISZERO PUSH2 0x19B2 JUMPI PUSH1 0x40 MLOAD PUSH3 0x461BCD PUSH1 0xE5 SHL DUP2 MSTORE PUSH1 0x4 ADD DUP1 DUP1 PUSH1 0x20 ADD DUP3 DUP2 SUB DUP3 MSTORE PUSH1 0x23 DUP2 MSTORE PUSH1 0x20 ADD DUP1 PUSH2 0x2AF5 PUSH1 0x23 SWAP2 CODECOPY PUSH1 0x40 ADD SWAP2 POP POP PUSH1 0x40 MLOAD DUP1 SWAP2 SUB SWAP1 REVERT JUMPDEST PUSH4 0xDE8AA89 PUSH1 0xE3 SHL DUP5 EQ ISZERO PUSH2 0x19CF JUMPI POP PUSH1 0x0 SWAP2 POP DUP2 SWAP1 POP DUP1 PUSH2 0x1C04 JUMP JUMPDEST PUSH1 0x0 DUP1 PUSH1 0x0 PUSH1 0x60 PUSH2 0x19E0 DUP10 DUP10 PUSH2 0x1615 JUMP JUMPDEST SWAP4 POP SWAP4 POP SWAP4 POP SWAP4 POP DUP3 DUP5 GT ISZERO PUSH2 0x1A12 JUMPI PUSH2 0x1A00 DUP5 DUP5 PUSH4 0xFFFFFFFF PUSH2 0x1E37 AND JUMP JUMPDEST SWAP7 POP PUSH2 0x1A0D DUP10 DUP10 DUP10 PUSH2 0x25F7 JUMP JUMPDEST PUSH2 0x1A37 JUMP JUMPDEST DUP4 DUP4 GT ISZERO PUSH2 0x1A37 JUMPI PUSH2 0x1A2A DUP4 DUP6 PUSH4 0xFFFFFFFF PUSH2 0x1E37 AND JUMP JUMPDEST SWAP6 POP PUSH2 0x1A37 DUP10 DUP10 DUP9 PUSH2 0x2747 JUMP JUMPDEST PUSH1 0x0 JUMPDEST DUP2 MLOAD DUP2 LT ISZERO PUSH2 0x1B7C JUMPI DUP10 PUSH1 0x1 PUSH1 0x1 PUSH1 0xA0 SHL SUB AND PUSH32 0x8E3AD1F68BEC55DE3B6FA12AE2674A2A683A17C918A4CBF5157AC5D9DDC6E940 DUP4 DUP4 DUP2 MLOAD DUP2 LT PUSH2 0x1A7A JUMPI INVALID JUMPDEST PUSH1 0x20 MUL PUSH1 0x20 ADD ADD MLOAD PUSH1 0x0 ADD MLOAD DUP5 DUP5 DUP2 MLOAD DUP2 LT PUSH2 0x1A92 JUMPI INVALID JUMPDEST PUSH1 0x20 MUL PUSH1 0x20 ADD ADD MLOAD PUSH1 0x20 ADD MLOAD DUP6 DUP6 DUP2 MLOAD DUP2 LT PUSH2 0x1AAA JUMPI INVALID JUMPDEST PUSH1 0x20 MUL PUSH1 0x20 ADD ADD MLOAD PUSH1 0x40 ADD MLOAD DUP7 DUP7 DUP2 MLOAD DUP2 LT PUSH2 0x1AC2 JUMPI INVALID JUMPDEST PUSH1 0x20 MUL PUSH1 0x20 ADD ADD MLOAD PUSH1 0x60 ADD MLOAD DUP8 DUP8 DUP2 MLOAD DUP2 LT PUSH2 0x1ADA JUMPI INVALID JUMPDEST PUSH1 0x20 MUL PUSH1 0x20 ADD ADD MLOAD PUSH1 0x80 ADD MLOAD DUP9 DUP9 DUP2 MLOAD DUP2 LT PUSH2 0x1AF2 JUMPI INVALID JUMPDEST PUSH1 0x20 MUL PUSH1 0x20 ADD ADD MLOAD PUSH1 0xA0 ADD MLOAD DUP10 DUP10 DUP2 MLOAD DUP2 LT PUSH2 0x1B0A JUMPI INVALID JUMPDEST PUSH1 0x20 MUL PUSH1 0x20 ADD ADD MLOAD PUSH1 0xC0 ADD MLOAD DUP11 DUP11 DUP2 MLOAD DUP2 LT PUSH2 0x1B22 JUMPI INVALID JUMPDEST PUSH1 0x20 MUL PUSH1 0x20 ADD ADD MLOAD PUSH1 0xE0 ADD MLOAD PUSH1 0x40 MLOAD DUP1 DUP10 DUP2 MSTORE PUSH1 0x20 ADD DUP9 DUP2 MSTORE PUSH1 0x20 ADD DUP8 DUP2 MSTORE PUSH1 0x20 ADD DUP7 DUP2 MSTORE PUSH1 0x20 ADD DUP6 DUP2 MSTORE PUSH1 0x20 ADD DUP5 DUP2 MSTORE PUSH1 0x20 ADD DUP4 DUP2 MSTORE PUSH1 0x20 ADD DUP3 DUP2 MSTORE PUSH1 0x20 ADD SWAP9 POP POP POP POP POP POP POP POP POP PUSH1 0x40 MLOAD DUP1 SWAP2 SUB SWAP1 LOG2 PUSH1 0x1 ADD PUSH2 0x1A3A JUMP JUMPDEST POP DUP2 SWAP5 POP PUSH2 0x1B88 PUSH2 0xFC4 JUMP JUMPDEST PUSH1 0x1 PUSH1 0x1 PUSH1 0xA0 SHL SUB AND PUSH4 0xD0D3D62A DUP11 DUP11 PUSH1 0x40 MLOAD DUP4 PUSH4 0xFFFFFFFF AND PUSH1 0xE0 SHL DUP2 MSTORE PUSH1 0x4 ADD DUP1 DUP4 PUSH1 0x1 PUSH1 0x1 PUSH1 0xA0 SHL SUB AND PUSH1 0x1 PUSH1 0x1 PUSH1 0xA0 SHL SUB AND DUP2 MSTORE PUSH1 0x20 ADD DUP3 DUP2 MSTORE PUSH1 0x20 ADD SWAP3 POP POP POP PUSH1 0x0 PUSH1 0x40 MLOAD DUP1 DUP4 SUB DUP2 PUSH1 0x0 DUP8 DUP1 EXTCODESIZE ISZERO DUP1 ISZERO PUSH2 0x1BE7 JUMPI PUSH1 0x0 DUP1 REVERT JUMPDEST POP GAS CALL ISZERO DUP1 ISZERO PUSH2 0x1BFB JUMPI RETURNDATASIZE PUSH1 0x0 DUP1 RETURNDATACOPY RETURNDATASIZE PUSH1 0x0 REVERT JUMPDEST POP POP POP POP POP POP POP POP JUMPDEST SWAP3 POP SWAP3 POP SWAP3 JUMP JUMPDEST PUSH1 0x2 SLOAD PUSH1 0x40 DUP1 MLOAD PUSH4 0xDACB2D01 PUSH1 0xE0 SHL DUP2 MSTORE PUSH6 0x24B9B9BAB2B9 PUSH1 0xD1 SHL PUSH1 0x4 DUP3 ADD MSTORE PUSH1 0x24 DUP2 ADD DUP3 SWAP1 MSTORE PUSH1 0x16 PUSH1 0x44 DUP3 ADD MSTORE PUSH22 0x4D697373696E67204973737565722061646472657373 PUSH1 0x50 SHL PUSH1 0x64 DUP3 ADD MSTORE SWAP1 MLOAD PUSH1 0x0 SWAP3 PUSH1 0x1 PUSH1 0x1 PUSH1 0xA0 SHL SUB AND SWAP2 PUSH4 0xDACB2D01 SWAP2 PUSH1 0x84 DUP1 DUP4 ADD SWAP3 PUSH1 0x20 SWAP3 SWAP2 SWAP1 DUP3 SWAP1 SUB ADD DUP2 DUP7 DUP1 EXTCODESIZE ISZERO DUP1 ISZERO PUSH2 0x1053 JUMPI PUSH1 0x0 DUP1 REVERT JUMPDEST PUSH1 0x0 DUP3 DUP3 ADD DUP4 DUP2 LT ISZERO PUSH2 0x551 JUMPI PUSH1 0x40 DUP1 MLOAD PUSH3 0x461BCD PUSH1 0xE5 SHL DUP2 MSTORE PUSH1 0x20 PUSH1 0x4 DUP3 ADD MSTORE PUSH1 0x1B PUSH1 0x24 DUP3 ADD MSTORE PUSH32 0x536166654D6174683A206164646974696F6E206F766572666C6F770000000000 PUSH1 0x44 DUP3 ADD MSTORE SWAP1 MLOAD SWAP1 DUP2 SWAP1 SUB PUSH1 0x64 ADD SWAP1 REVERT JUMPDEST PUSH1 0x2 SLOAD PUSH1 0x40 DUP1 MLOAD PUSH4 0xDACB2D01 PUSH1 0xE0 SHL DUP2 MSTORE PUSH17 0x44656C6567617465417070726F76616C73 PUSH1 0x78 SHL PUSH1 0x4 DUP3 ADD SWAP1 DUP2 MSTORE PUSH1 0x24 DUP3 ADD SWAP3 DUP4 MSTORE PUSH1 0x21 PUSH1 0x44 DUP4 ADD DUP2 SWAP1 MSTORE PUSH1 0x0 SWAP5 PUSH1 0x1 PUSH1 0x1 PUSH1 0xA0 SHL SUB AND SWAP4 PUSH4 0xDACB2D01 SWAP4 SWAP1 SWAP2 PUSH1 0x64 SWAP1 SWAP2 ADD SWAP1 PUSH2 0x2A43 DUP3 CODECOPY PUSH1 0x40 ADD SWAP2 POP POP PUSH1 0x20 PUSH1 0x40 MLOAD DUP1 DUP4 SUB DUP2 DUP7 DUP1 EXTCODESIZE ISZERO DUP1 ISZERO PUSH2 0x1053 JUMPI PUSH1 0x0 DUP1 REVERT JUMPDEST PUSH1 0x2 SLOAD PUSH1 0x40 DUP1 MLOAD PUSH4 0xDACB2D01 PUSH1 0xE0 SHL DUP2 MSTORE PUSH13 0x45786368616E67655261746573 PUSH1 0x98 SHL PUSH1 0x4 DUP3 ADD MSTORE PUSH1 0x24 DUP2 ADD DUP3 SWAP1 MSTORE PUSH1 0x1D PUSH1 0x44 DUP3 ADD MSTORE PUSH32 0x4D697373696E672045786368616E676552617465732061646472657373000000 PUSH1 0x64 DUP3 ADD MSTORE SWAP1 MLOAD PUSH1 0x0 SWAP3 PUSH1 0x1 PUSH1 0x1 PUSH1 0xA0 SHL SUB AND SWAP2 PUSH4 0xDACB2D01 SWAP2 PUSH1 0x84 DUP1 DUP4 ADD SWAP3 PUSH1 0x20 SWAP3 SWAP2 SWAP1 DUP3 SWAP1 SUB ADD DUP2 DUP7 DUP1 EXTCODESIZE ISZERO DUP1 ISZERO PUSH2 0x1053 JUMPI PUSH1 0x0 DUP1 REVERT JUMPDEST PUSH1 0x0 DUP1 PUSH1 0x0 DUP1 PUSH2 0x1E01 DUP7 DUP9 DUP8 PUSH2 0xEDE JUMP JUMPDEST SWAP1 POP PUSH2 0x1E0D DUP7 DUP7 PUSH2 0x18D1 JUMP JUMPDEST SWAP2 POP PUSH2 0x1E19 DUP2 DUP4 PUSH2 0x2565 JUMP JUMPDEST SWAP4 POP PUSH2 0x1E2B DUP2 DUP6 PUSH4 0xFFFFFFFF PUSH2 0x1E37 AND JUMP JUMPDEST SWAP3 POP POP SWAP4 POP SWAP4 POP SWAP4 SWAP1 POP JUMP JUMPDEST PUSH1 0x0 DUP3 DUP3 GT ISZERO PUSH2 0x1E8E JUMPI PUSH1 0x40 DUP1 MLOAD PUSH3 0x461BCD PUSH1 0xE5 SHL DUP2 MSTORE PUSH1 0x20 PUSH1 0x4 DUP3 ADD MSTORE PUSH1 0x1E PUSH1 0x24 DUP3 ADD MSTORE PUSH32 0x536166654D6174683A207375627472616374696F6E206F766572666C6F770000 PUSH1 0x44 DUP3 ADD MSTORE SWAP1 MLOAD SWAP1 DUP2 SWAP1 SUB PUSH1 0x64 ADD SWAP1 REVERT JUMPDEST POP SWAP1 SUB SWAP1 JUMP JUMPDEST PUSH1 0x0 PUSH2 0x1E9E PUSH2 0x1D61 JUMP JUMPDEST PUSH1 0x1 PUSH1 0x1 PUSH1 0xA0 SHL SUB AND PUSH4 0x654A60AC DUP4 DUP6 PUSH4 0x1BD554D1 PUSH1 0xE2 SHL PUSH1 0x40 MLOAD DUP5 PUSH4 0xFFFFFFFF AND PUSH1 0xE0 SHL DUP2 MSTORE PUSH1 0x4 ADD DUP1 DUP5 DUP2 MSTORE PUSH1 0x20 ADD DUP4 DUP2 MSTORE PUSH1 0x20 ADD DUP3 DUP2 MSTORE PUSH1 0x20 ADD SWAP4 POP POP POP POP PUSH1 0x20 PUSH1 0x40 MLOAD DUP1 DUP4 SUB DUP2 DUP7 DUP1 EXTCODESIZE ISZERO DUP1 ISZERO PUSH2 0x1EF8 JUMPI PUSH1 0x0 DUP1 REVERT JUMPDEST POP GAS STATICCALL ISZERO DUP1 ISZERO PUSH2 0x1F0C JUMPI RETURNDATASIZE PUSH1 0x0 DUP1 RETURNDATACOPY RETURNDATASIZE PUSH1 0x0 REVERT JUMPDEST POP POP POP POP PUSH1 0x40 MLOAD RETURNDATASIZE PUSH1 0x20 DUP2 LT ISZERO PUSH2 0x1F22 JUMPI PUSH1 0x0 DUP1 REVERT JUMPDEST POP MLOAD SWAP1 POP PUSH2 0x1F2E PUSH2 0x1C0B JUMP JUMPDEST PUSH1 0x1 PUSH1 0x1 PUSH1 0xA0 SHL SUB AND PUSH4 0x32608039 PUSH4 0x1BD554D1 PUSH1 0xE2 SHL PUSH1 0x40 MLOAD DUP3 PUSH4 0xFFFFFFFF AND PUSH1 0xE0 SHL DUP2 MSTORE PUSH1 0x4 ADD DUP1 DUP3 DUP2 MSTORE PUSH1 0x20 ADD SWAP2 POP POP PUSH1 0x20 PUSH1 0x40 MLOAD DUP1 DUP4 SUB DUP2 DUP7 DUP1 EXTCODESIZE ISZERO DUP1 ISZERO PUSH2 0x1F78 JUMPI PUSH1 0x0 DUP1 REVERT JUMPDEST POP GAS STATICCALL ISZERO DUP1 ISZERO PUSH2 0x1F8C JUMPI RETURNDATASIZE PUSH1 0x0 DUP1 RETURNDATACOPY RETURNDATASIZE PUSH1 0x0 REVERT JUMPDEST POP POP POP POP PUSH1 0x40 MLOAD RETURNDATASIZE PUSH1 0x20 DUP2 LT ISZERO PUSH2 0x1FA2 JUMPI PUSH1 0x0 DUP1 REVERT JUMPDEST POP MLOAD PUSH1 0x1 PUSH1 0x1 PUSH1 0xA0 SHL SUB AND PUSH4 0x867904B4 PUSH2 0x1FBA PUSH2 0x2897 JUMP JUMPDEST PUSH1 0x1 PUSH1 0x1 PUSH1 0xA0 SHL SUB AND PUSH4 0xEB1EDD61 PUSH1 0x40 MLOAD DUP2 PUSH4 0xFFFFFFFF AND PUSH1 0xE0 SHL DUP2 MSTORE PUSH1 0x4 ADD PUSH1 0x20 PUSH1 0x40 MLOAD DUP1 DUP4 SUB DUP2 DUP7 DUP1 EXTCODESIZE ISZERO DUP1 ISZERO PUSH2 0x1FF2 JUMPI PUSH1 0x0 DUP1 REVERT JUMPDEST POP GAS STATICCALL ISZERO DUP1 ISZERO PUSH2 0x2006 JUMPI RETURNDATASIZE PUSH1 0x0 DUP1 RETURNDATACOPY RETURNDATASIZE PUSH1 0x0 REVERT JUMPDEST POP POP POP POP PUSH1 0x40 MLOAD RETURNDATASIZE PUSH1 0x20 DUP2 LT ISZERO PUSH2 0x201C JUMPI PUSH1 0x0 DUP1 REVERT JUMPDEST POP MLOAD PUSH1 0x40 DUP1 MLOAD PUSH1 0x1 PUSH1 0x1 PUSH1 0xE0 SHL SUB NOT PUSH1 0xE0 DUP6 SWAP1 SHL AND DUP2 MSTORE PUSH1 0x1 PUSH1 0x1 PUSH1 0xA0 SHL SUB SWAP1 SWAP3 AND PUSH1 0x4 DUP4 ADD MSTORE PUSH1 0x24 DUP3 ADD DUP6 SWAP1 MSTORE MLOAD PUSH1 0x44 DUP1 DUP4 ADD SWAP3 PUSH1 0x0 SWAP3 SWAP2 SWAP1 DUP3 SWAP1 SUB ADD DUP2 DUP4 DUP8 DUP1 EXTCODESIZE ISZERO DUP1 ISZERO PUSH2 0x206B JUMPI PUSH1 0x0 DUP1 REVERT JUMPDEST POP GAS CALL ISZERO DUP1 ISZERO PUSH2 0x207F JUMPI RETURNDATASIZE PUSH1 0x0 DUP1 RETURNDATACOPY RETURNDATASIZE PUSH1 0x0 REVERT JUMPDEST POP POP POP POP PUSH2 0x208B PUSH2 0x2897 JUMP JUMPDEST PUSH1 0x1 PUSH1 0x1 PUSH1 0xA0 SHL SUB AND PUSH4 0x22BF55EF DUP3 PUSH1 0x40 MLOAD DUP3 PUSH4 0xFFFFFFFF AND PUSH1 0xE0 SHL DUP2 MSTORE PUSH1 0x4 ADD DUP1 DUP3 DUP2 MSTORE PUSH1 0x20 ADD SWAP2 POP POP PUSH1 0x0 PUSH1 0x40 MLOAD DUP1 DUP4 SUB DUP2 PUSH1 0x0 DUP8 DUP1 EXTCODESIZE ISZERO DUP1 ISZERO PUSH2 0x20D0 JUMPI PUSH1 0x0 DUP1 REVERT JUMPDEST POP GAS CALL ISZERO DUP1 ISZERO PUSH2 0x20E4 JUMPI RETURNDATASIZE PUSH1 0x0 DUP1 RETURNDATACOPY RETURNDATASIZE PUSH1 0x0 REVERT JUMPDEST POP POP POP POP POP POP POP JUMP JUMPDEST PUSH1 0x0 PUSH2 0x20F7 PUSH2 0x1D61 JUMP JUMPDEST SWAP1 POP PUSH1 0x0 DUP2 PUSH1 0x1 PUSH1 0x1 PUSH1 0xA0 SHL SUB AND PUSH4 0x7A018A1E DUP9 PUSH1 0x40 MLOAD DUP3 PUSH4 0xFFFFFFFF AND PUSH1 0xE0 SHL DUP2 MSTORE PUSH1 0x4 ADD DUP1 DUP3 DUP2 MSTORE PUSH1 0x20 ADD SWAP2 POP POP PUSH1 0x20 PUSH1 0x40 MLOAD DUP1 DUP4 SUB DUP2 DUP7 DUP1 EXTCODESIZE ISZERO DUP1 ISZERO PUSH2 0x213F JUMPI PUSH1 0x0 DUP1 REVERT JUMPDEST POP GAS STATICCALL ISZERO DUP1 ISZERO PUSH2 0x2153 JUMPI RETURNDATASIZE PUSH1 0x0 DUP1 RETURNDATACOPY RETURNDATASIZE PUSH1 0x0 REVERT JUMPDEST POP POP POP POP PUSH1 0x40 MLOAD RETURNDATASIZE PUSH1 0x20 DUP2 LT ISZERO PUSH2 0x2169 JUMPI PUSH1 0x0 DUP1 REVERT JUMPDEST POP MLOAD PUSH1 0x40 DUP1 MLOAD PUSH4 0x3D00C50F PUSH1 0xE1 SHL DUP2 MSTORE PUSH1 0x4 DUP2 ADD DUP9 SWAP1 MSTORE SWAP1 MLOAD SWAP2 SWAP3 POP PUSH1 0x0 SWAP2 PUSH1 0x1 PUSH1 0x1 PUSH1 0xA0 SHL SUB DUP6 AND SWAP2 PUSH4 0x7A018A1E SWAP2 PUSH1 0x24 DUP1 DUP4 ADD SWAP3 PUSH1 0x20 SWAP3 SWAP2 SWAP1 DUP3 SWAP1 SUB ADD DUP2 DUP7 DUP1 EXTCODESIZE ISZERO DUP1 ISZERO PUSH2 0x21B8 JUMPI PUSH1 0x0 DUP1 REVERT JUMPDEST POP GAS STATICCALL ISZERO DUP1 ISZERO PUSH2 0x21CC JUMPI RETURNDATASIZE PUSH1 0x0 DUP1 RETURNDATACOPY RETURNDATASIZE PUSH1 0x0 REVERT JUMPDEST POP POP POP POP PUSH1 0x40 MLOAD RETURNDATASIZE PUSH1 0x20 DUP2 LT ISZERO PUSH2 0x21E2 JUMPI PUSH1 0x0 DUP1 REVERT JUMPDEST POP MLOAD SWAP1 POP PUSH2 0x21EE PUSH2 0xFC4 JUMP JUMPDEST PUSH1 0x40 DUP1 MLOAD PUSH4 0xF2A7617 PUSH1 0xE2 SHL DUP2 MSTORE PUSH1 0x1 PUSH1 0x1 PUSH1 0xA0 SHL SUB DUP13 DUP2 AND PUSH1 0x4 DUP4 ADD MSTORE PUSH1 0x24 DUP3 ADD DUP13 SWAP1 MSTORE PUSH1 0x44 DUP3 ADD DUP12 SWAP1 MSTORE PUSH1 0x64 DUP3 ADD DUP11 SWAP1 MSTORE PUSH1 0x84 DUP3 ADD DUP10 SWAP1 MSTORE PUSH1 0xA4 DUP3 ADD DUP9 SWAP1 MSTORE TIMESTAMP PUSH1 0xC4 DUP4 ADD MSTORE PUSH1 0xE4 DUP3 ADD DUP7 SWAP1 MSTORE PUSH2 0x104 DUP3 ADD DUP6 SWAP1 MSTORE SWAP2 MLOAD SWAP3 SWAP1 SWAP2 AND SWAP2 PUSH4 0x3CA9D85C SWAP2 PUSH2 0x124 DUP1 DUP3 ADD SWAP3 PUSH1 0x0 SWAP3 SWAP1 SWAP2 SWAP1 DUP3 SWAP1 SUB ADD DUP2 DUP4 DUP8 DUP1 EXTCODESIZE ISZERO DUP1 ISZERO PUSH2 0x2273 JUMPI PUSH1 0x0 DUP1 REVERT JUMPDEST POP GAS CALL ISZERO DUP1 ISZERO PUSH2 0x2287 JUMPI RETURNDATASIZE PUSH1 0x0 DUP1 RETURNDATACOPY RETURNDATASIZE PUSH1 0x0 REVERT JUMPDEST POP POP PUSH1 0x40 DUP1 MLOAD DUP12 DUP2 MSTORE PUSH1 0x20 DUP2 ADD DUP12 SWAP1 MSTORE DUP1 DUP3 ADD DUP11 SWAP1 MSTORE PUSH1 0x60 DUP2 ADD DUP10 SWAP1 MSTORE PUSH1 0x80 DUP2 ADD DUP9 SWAP1 MSTORE PUSH1 0xA0 DUP2 ADD DUP7 SWAP1 MSTORE PUSH1 0xC0 DUP2 ADD DUP6 SWAP1 MSTORE SWAP1 MLOAD PUSH1 0x1 PUSH1 0x1 PUSH1 0xA0 SHL SUB DUP14 AND SWAP4 POP PUSH32 0x62E40D554C7ABCDD31074960D8347A2225DAEB04D93BC748F049BA2CE9462398 SWAP3 POP SWAP1 DUP2 SWAP1 SUB PUSH1 0xE0 ADD SWAP1 LOG2 POP POP POP POP POP POP POP POP POP JUMP JUMPDEST PUSH2 0x2306 PUSH2 0x29C2 JUMP JUMPDEST PUSH1 0x0 DUP1 PUSH1 0x0 DUP1 PUSH1 0x0 DUP1 PUSH1 0x0 DUP1 PUSH2 0x231A PUSH2 0xFC4 JUMP JUMPDEST PUSH1 0x1 PUSH1 0x1 PUSH1 0xA0 SHL SUB AND PUSH4 0x15987EB6 DUP14 DUP14 DUP14 PUSH1 0x40 MLOAD DUP5 PUSH4 0xFFFFFFFF AND PUSH1 0xE0 SHL DUP2 MSTORE PUSH1 0x4 ADD DUP1 DUP5 PUSH1 0x1 PUSH1 0x1 PUSH1 0xA0 SHL SUB AND PUSH1 0x1 PUSH1 0x1 PUSH1 0xA0 SHL SUB AND DUP2 MSTORE PUSH1 0x20 ADD DUP4 DUP2 MSTORE PUSH1 0x20 ADD DUP3 DUP2 MSTORE PUSH1 0x20 ADD SWAP4 POP POP POP POP PUSH2 0x100 PUSH1 0x40 MLOAD DUP1 DUP4 SUB DUP2 DUP7 DUP1 EXTCODESIZE ISZERO DUP1 ISZERO PUSH2 0x2380 JUMPI PUSH1 0x0 DUP1 REVERT JUMPDEST POP GAS STATICCALL ISZERO DUP1 ISZERO PUSH2 0x2394 JUMPI RETURNDATASIZE PUSH1 0x0 DUP1 RETURNDATACOPY RETURNDATASIZE PUSH1 0x0 REVERT JUMPDEST POP POP POP POP PUSH1 0x40 MLOAD RETURNDATASIZE PUSH2 0x100 DUP2 LT ISZERO PUSH2 0x23AB JUMPI PUSH1 0x0 DUP1 REVERT JUMPDEST POP DUP1 MLOAD PUSH1 0x20 DUP1 DUP4 ADD MLOAD PUSH1 0x40 DUP1 DUP6 ADD MLOAD PUSH1 0x60 DUP1 DUP8 ADD MLOAD PUSH1 0x80 DUP1 DUP10 ADD MLOAD PUSH1 0xA0 DUP1 DUP12 ADD MLOAD PUSH1 0xC0 DUP1 DUP14 ADD MLOAD PUSH1 0xE0 SWAP14 DUP15 ADD MLOAD DUP11 MLOAD PUSH2 0x100 DUP2 ADD DUP13 MSTORE SWAP14 DUP15 MSTORE SWAP12 DUP14 ADD SWAP11 SWAP1 SWAP11 MSTORE SWAP8 DUP12 ADD SWAP7 SWAP1 SWAP7 MSTORE SWAP4 DUP10 ADD SWAP3 SWAP1 SWAP3 MSTORE DUP8 ADD MSTORE DUP6 ADD MSTORE DUP4 ADD MSTORE SWAP2 DUP2 ADD SWAP2 SWAP1 SWAP2 MSTORE SWAP13 SWAP12 POP POP POP POP POP POP POP POP POP POP POP POP JUMP JUMPDEST PUSH1 0x0 DUP1 PUSH1 0x0 PUSH2 0x2426 PUSH2 0x1D61 JUMP JUMPDEST PUSH1 0x5 SLOAD DUP6 MLOAD PUSH1 0xC0 DUP8 ADD MLOAD PUSH1 0xA0 DUP9 ADD MLOAD PUSH1 0x40 DUP1 MLOAD PUSH4 0x84F2351 PUSH1 0xE1 SHL DUP2 MSTORE PUSH1 0x4 DUP2 ADD SWAP5 SWAP1 SWAP5 MSTORE PUSH1 0x24 DUP5 ADD SWAP3 SWAP1 SWAP3 MSTORE PUSH1 0x44 DUP4 ADD MSTORE PUSH1 0x64 DUP3 ADD DUP4 SWAP1 MSTORE MLOAD SWAP3 SWAP4 POP SWAP1 SWAP2 PUSH1 0x1 PUSH1 0x1 PUSH1 0xA0 SHL SUB DUP5 AND SWAP2 PUSH4 0x109E46A2 SWAP2 PUSH1 0x84 DUP1 DUP4 ADD SWAP3 PUSH1 0x20 SWAP3 SWAP2 SWAP1 DUP3 SWAP1 SUB ADD DUP2 DUP7 DUP1 EXTCODESIZE ISZERO DUP1 ISZERO PUSH2 0x2495 JUMPI PUSH1 0x0 DUP1 REVERT JUMPDEST POP GAS STATICCALL ISZERO DUP1 ISZERO PUSH2 0x24A9 JUMPI RETURNDATASIZE PUSH1 0x0 DUP1 RETURNDATACOPY RETURNDATASIZE PUSH1 0x0 REVERT JUMPDEST POP POP POP POP PUSH1 0x40 MLOAD RETURNDATASIZE PUSH1 0x20 DUP2 LT ISZERO PUSH2 0x24BF JUMPI PUSH1 0x0 DUP1 REVERT JUMPDEST POP MLOAD PUSH1 0x40 DUP1 DUP8 ADD MLOAD PUSH1 0xE0 DUP9 ADD MLOAD PUSH1 0xA0 DUP10 ADD MLOAD DUP4 MLOAD PUSH4 0x84F2351 PUSH1 0xE1 SHL DUP2 MSTORE PUSH1 0x4 DUP2 ADD SWAP4 SWAP1 SWAP4 MSTORE PUSH1 0x24 DUP4 ADD SWAP2 SWAP1 SWAP2 MSTORE PUSH1 0x44 DUP3 ADD MSTORE PUSH1 0x64 DUP2 ADD DUP5 SWAP1 MSTORE SWAP1 MLOAD SWAP2 SWAP6 POP PUSH1 0x1 PUSH1 0x1 PUSH1 0xA0 SHL SUB DUP5 AND SWAP2 PUSH4 0x109E46A2 SWAP2 PUSH1 0x84 DUP1 DUP3 ADD SWAP3 PUSH1 0x20 SWAP3 SWAP1 SWAP2 SWAP1 DUP3 SWAP1 SUB ADD DUP2 DUP7 DUP1 EXTCODESIZE ISZERO DUP1 ISZERO PUSH2 0x252F JUMPI PUSH1 0x0 DUP1 REVERT JUMPDEST POP GAS STATICCALL ISZERO DUP1 ISZERO PUSH2 0x2543 JUMPI RETURNDATASIZE PUSH1 0x0 DUP1 RETURNDATACOPY RETURNDATASIZE PUSH1 0x0 REVERT JUMPDEST POP POP POP POP PUSH1 0x40 MLOAD RETURNDATASIZE PUSH1 0x20 DUP2 LT ISZERO PUSH2 0x2559 JUMPI PUSH1 0x0 DUP1 REVERT JUMPDEST POP MLOAD SWAP4 SWAP6 SWAP4 SWAP5 POP POP POP POP JUMP JUMPDEST PUSH1 0x0 PUSH2 0x551 PUSH2 0x25EA DUP4 PUSH20 0x0 PUSH4 0x907AF6C0 PUSH1 0x40 MLOAD DUP2 PUSH4 0xFFFFFFFF AND PUSH1 0xE0 SHL DUP2 MSTORE PUSH1 0x4 ADD PUSH1 0x20 PUSH1 0x40 MLOAD DUP1 DUP4 SUB DUP2 DUP7 DUP1 EXTCODESIZE ISZERO DUP1 ISZERO PUSH2 0x25B2 JUMPI PUSH1 0x0 DUP1 REVERT JUMPDEST POP GAS DELEGATECALL ISZERO DUP1 ISZERO PUSH2 0x25C6 JUMPI RETURNDATASIZE PUSH1 0x0 DUP1 RETURNDATACOPY RETURNDATASIZE PUSH1 0x0 REVERT JUMPDEST POP POP POP POP PUSH1 0x40 MLOAD RETURNDATASIZE PUSH1 0x20 DUP2 LT ISZERO PUSH2 0x25DC JUMPI PUSH1 0x0 DUP1 REVERT JUMPDEST POP MLOAD SWAP1 PUSH4 0xFFFFFFFF PUSH2 0x1E37 AND JUMP JUMPDEST DUP5 SWAP1 PUSH4 0xFFFFFFFF PUSH2 0x2920 AND JUMP JUMPDEST PUSH2 0x25FF PUSH2 0x1C0B JUMP JUMPDEST PUSH1 0x1 PUSH1 0x1 PUSH1 0xA0 SHL SUB AND PUSH4 0x32608039 DUP4 PUSH1 0x40 MLOAD DUP3 PUSH4 0xFFFFFFFF AND PUSH1 0xE0 SHL DUP2 MSTORE PUSH1 0x4 ADD DUP1 DUP3 DUP2 MSTORE PUSH1 0x20 ADD SWAP2 POP POP PUSH1 0x20 PUSH1 0x40 MLOAD DUP1 DUP4 SUB DUP2 DUP7 DUP1 EXTCODESIZE ISZERO DUP1 ISZERO PUSH2 0x2642 JUMPI PUSH1 0x0 DUP1 REVERT JUMPDEST POP GAS STATICCALL ISZERO DUP1 ISZERO PUSH2 0x2656 JUMPI RETURNDATASIZE PUSH1 0x0 DUP1 RETURNDATACOPY RETURNDATASIZE PUSH1 0x0 REVERT JUMPDEST POP POP POP POP PUSH1 0x40 MLOAD RETURNDATASIZE PUSH1 0x20 DUP2 LT ISZERO PUSH2 0x266C JUMPI PUSH1 0x0 DUP1 REVERT JUMPDEST POP MLOAD PUSH1 0x40 DUP1 MLOAD PUSH4 0x2770A7EB PUSH1 0xE2 SHL DUP2 MSTORE PUSH1 0x1 PUSH1 0x1 PUSH1 0xA0 SHL SUB DUP7 DUP2 AND PUSH1 0x4 DUP4 ADD MSTORE PUSH1 0x24 DUP3 ADD DUP6 SWAP1 MSTORE SWAP2 MLOAD SWAP2 SWAP1 SWAP3 AND SWAP2 PUSH4 0x9DC29FAC SWAP2 PUSH1 0x44 DUP1 DUP4 ADD SWAP3 PUSH1 0x0 SWAP3 SWAP2 SWAP1 DUP3 SWAP1 SUB ADD DUP2 DUP4 DUP8 DUP1 EXTCODESIZE ISZERO DUP1 ISZERO PUSH2 0x26C0 JUMPI PUSH1 0x0 DUP1 REVERT JUMPDEST POP GAS CALL ISZERO DUP1 ISZERO PUSH2 0x26D4 JUMPI RETURNDATASIZE PUSH1 0x0 DUP1 RETURNDATACOPY RETURNDATASIZE PUSH1 0x0 REVERT JUMPDEST POP POP POP POP PUSH2 0x26E0 PUSH2 0x10D8 JUMP JUMPDEST PUSH1 0x1 PUSH1 0x1 PUSH1 0xA0 SHL SUB AND PUSH4 0xACE88AFD DUP5 DUP5 DUP5 PUSH1 0x40 MLOAD DUP5 PUSH4 0xFFFFFFFF AND PUSH1 0xE0 SHL DUP2 MSTORE PUSH1 0x4 ADD DUP1 DUP5 PUSH1 0x1 PUSH1 0x1 PUSH1 0xA0 SHL SUB AND PUSH1 0x1 PUSH1 0x1 PUSH1 0xA0 SHL SUB AND DUP2 MSTORE PUSH1 0x20 ADD DUP4 DUP2 MSTORE PUSH1 0x20 ADD DUP3 DUP2 MSTORE PUSH1 0x20 ADD SWAP4 POP POP POP POP PUSH1 0x0 PUSH1 0x40 MLOAD DUP1 DUP4 SUB DUP2 PUSH1 0x0 DUP8 DUP1 EXTCODESIZE ISZERO DUP1 ISZERO PUSH2 0x20D0 JUMPI PUSH1 0x0 DUP1 REVERT JUMPDEST PUSH2 0x274F PUSH2 0x1C0B JUMP JUMPDEST PUSH1 0x1 PUSH1 0x1 PUSH1 0xA0 SHL SUB AND PUSH4 0x32608039 DUP4 PUSH1 0x40 MLOAD DUP3 PUSH4 0xFFFFFFFF AND PUSH1 0xE0 SHL DUP2 MSTORE PUSH1 0x4 ADD DUP1 DUP3 DUP2 MSTORE PUSH1 0x20 ADD SWAP2 POP POP PUSH1 0x20 PUSH1 0x40 MLOAD DUP1 DUP4 SUB DUP2 DUP7 DUP1 EXTCODESIZE ISZERO DUP1 ISZERO PUSH2 0x2792 JUMPI PUSH1 0x0 DUP1 REVERT JUMPDEST POP GAS STATICCALL ISZERO DUP1 ISZERO PUSH2 0x27A6 JUMPI RETURNDATASIZE PUSH1 0x0 DUP1 RETURNDATACOPY RETURNDATASIZE PUSH1 0x0 REVERT JUMPDEST POP POP POP POP PUSH1 0x40 MLOAD RETURNDATASIZE PUSH1 0x20 DUP2 LT ISZERO PUSH2 0x27BC JUMPI PUSH1 0x0 DUP1 REVERT JUMPDEST POP MLOAD PUSH1 0x40 DUP1 MLOAD PUSH4 0x219E412D PUSH1 0xE2 SHL DUP2 MSTORE PUSH1 0x1 PUSH1 0x1 PUSH1 0xA0 SHL SUB DUP7 DUP2 AND PUSH1 0x4 DUP4 ADD MSTORE PUSH1 0x24 DUP3 ADD DUP6 SWAP1 MSTORE SWAP2 MLOAD SWAP2 SWAP1 SWAP3 AND SWAP2 PUSH4 0x867904B4 SWAP2 PUSH1 0x44 DUP1 DUP4 ADD SWAP3 PUSH1 0x0 SWAP3 SWAP2 SWAP1 DUP3 SWAP1 SUB ADD DUP2 DUP4 DUP8 DUP1 EXTCODESIZE ISZERO DUP1 ISZERO PUSH2 0x2810 JUMPI PUSH1 0x0 DUP1 REVERT JUMPDEST POP GAS CALL ISZERO DUP1 ISZERO PUSH2 0x2824 JUMPI RETURNDATASIZE PUSH1 0x0 DUP1 RETURNDATACOPY RETURNDATASIZE PUSH1 0x0 REVERT JUMPDEST POP POP POP POP PUSH2 0x2830 PUSH2 0x10D8 JUMP JUMPDEST PUSH1 0x1 PUSH1 0x1 PUSH1 0xA0 SHL SUB AND PUSH4 0x6F01A986 DUP5 DUP5 DUP5 PUSH1 0x40 MLOAD DUP5 PUSH4 0xFFFFFFFF AND PUSH1 0xE0 SHL DUP2 MSTORE PUSH1 0x4 ADD DUP1 DUP5 PUSH1 0x1 PUSH1 0x1 PUSH1 0xA0 SHL SUB AND PUSH1 0x1 PUSH1 0x1 PUSH1 0xA0 SHL SUB AND DUP2 MSTORE PUSH1 0x20 ADD DUP4 DUP2 MSTORE PUSH1 0x20 ADD DUP3 DUP2 MSTORE PUSH1 0x20 ADD SWAP4 POP POP POP POP PUSH1 0x0 PUSH1 0x40 MLOAD DUP1 DUP4 SUB DUP2 PUSH1 0x0 DUP8 DUP1 EXTCODESIZE ISZERO DUP1 ISZERO PUSH2 0x20D0 JUMPI PUSH1 0x0 DUP1 REVERT JUMPDEST PUSH1 0x2 SLOAD PUSH1 0x40 DUP1 MLOAD PUSH4 0xDACB2D01 PUSH1 0xE0 SHL DUP2 MSTORE PUSH7 0x119959541BDBDB PUSH1 0xCA SHL PUSH1 0x4 DUP3 ADD MSTORE PUSH1 0x24 DUP2 ADD DUP3 SWAP1 MSTORE PUSH1 0x17 PUSH1 0x44 DUP3 ADD MSTORE PUSH32 0x4D697373696E6720466565506F6F6C2061646472657373000000000000000000 PUSH1 0x64 DUP3 ADD MSTORE SWAP1 MLOAD PUSH1 0x0 SWAP3 PUSH1 0x1 PUSH1 0x1 PUSH1 0xA0 SHL SUB AND SWAP2 PUSH4 0xDACB2D01 SWAP2 PUSH1 0x84 DUP1 DUP4 ADD SWAP3 PUSH1 0x20 SWAP3 SWAP2 SWAP1 DUP3 SWAP1 SUB ADD DUP2 DUP7 DUP1 EXTCODESIZE ISZERO DUP1 ISZERO PUSH2 0x1053 JUMPI PUSH1 0x0 DUP1 REVERT JUMPDEST PUSH1 0x0 PUSH8 0xDE0B6B3A7640000 PUSH2 0x293B DUP5 DUP5 PUSH4 0xFFFFFFFF PUSH2 0x294A AND JUMP JUMPDEST DUP2 PUSH2 0x2942 JUMPI INVALID JUMPDEST DIV SWAP4 SWAP3 POP POP POP JUMP JUMPDEST PUSH1 0x0 DUP3 PUSH2 0x2959 JUMPI POP PUSH1 0x0 PUSH2 0x554 JUMP JUMPDEST DUP3 DUP3 MUL DUP3 DUP5 DUP3 DUP2 PUSH2 0x2966 JUMPI INVALID JUMPDEST DIV EQ PUSH2 0x551 JUMPI PUSH1 0x40 MLOAD PUSH3 0x461BCD PUSH1 0xE5 SHL DUP2 MSTORE PUSH1 0x4 ADD DUP1 DUP1 PUSH1 0x20 ADD DUP3 DUP2 SUB DUP3 MSTORE PUSH1 0x21 DUP2 MSTORE PUSH1 0x20 ADD DUP1 PUSH2 0x2A93 PUSH1 0x21 SWAP2 CODECOPY PUSH1 0x40 ADD SWAP2 POP POP PUSH1 0x40 MLOAD DUP1 SWAP2 SUB SWAP1 REVERT JUMPDEST PUSH1 0x40 MLOAD DUP1 PUSH2 0x300 ADD PUSH1 0x40 MSTORE DUP1 PUSH1 0x18 SWAP1 PUSH1 0x20 DUP3 MUL DUP1 CODESIZE DUP4 CODECOPY POP SWAP2 SWAP3 SWAP2 POP POP JUMP JUMPDEST PUSH1 0x40 MLOAD DUP1 PUSH2 0x100 ADD PUSH1 0x40 MSTORE DUP1 PUSH1 0x0 DUP1 NOT AND DUP2 MSTORE PUSH1 0x20 ADD PUSH1 0x0 DUP2 MSTORE PUSH1 0x20 ADD PUSH1 0x0 DUP1 NOT AND DUP2 MSTORE PUSH1 0x20 ADD PUSH1 0x0 DUP2 MSTORE PUSH1 0x20 ADD PUSH1 0x0 DUP2 MSTORE PUSH1 0x20 ADD PUSH1 0x0 DUP2 MSTORE PUSH1 0x20 ADD PUSH1 0x0 DUP2 MSTORE PUSH1 0x20 ADD PUSH1 0x0 DUP2 MSTORE POP SWAP1 JUMP INVALID MSIZE PUSH16 0x75206D757374206265206E6F6D696E61 PUSH21 0x6564206265666F726520796F752063616E20616363 PUSH6 0x7074206F776E PUSH6 0x72736869704D PUSH10 0x7373696E672044656C65 PUSH8 0x617465417070726F PUSH23 0x616C7320616464726573734F6E6C792074686520636F6E PUSH21 0x72616374206F776E6572206D617920706572666F72 PUSH14 0x207468697320616374696F6E5361 PUSH7 0x654D6174683A20 PUSH14 0x756C7469706C69636174696F6E20 PUSH16 0x766572666C6F7745786368616E676572 GASPRICE KECCAK256 0x4F PUSH15 0x6C79206F696B6F73206F7220612073 PUSH26 0x6E746820636F6E74726163742063616E20706572666F726D2074 PUSH9 0x697320616374696F6E NUMBER PUSH2 0x6E6E PUSH16 0x7420736574746C6520647572696E6720 PUSH24 0x616974696E6720706572696F64A265627A7A723158200024 SWAP7 ISZERO 0xF7 LT PUSH17 0x310117A6D0119BFFC6677DF25DCF9AA42 0xB3 CALLDATACOPY REVERT MLOAD DUP8 SWAP11 CHAINID 0x2B PUSH5 0x736F6C6343 STOP SDIV LT STOP ORIGIN "
		}
	}
}